:020000040800F2
:1000000030330020650200087D0200087F020008EE
:100010008102000883020008850200080000000039
:10002000000000000000000000000000870200083F
:1000300089020008000000008D130008B546000882
:100040008F0200088F0200088F0200088F0200084C
:100050008F0200088F0200088F0200088F0200083C
:100060008F0200088F0200088F0200088F0200082C
:100070008F0200088F0200088F0200088F0200081C
:100080008F0200088F0200088F0200088F0200080C
:100090008F0200088F0200088F0200088F020008FC
:1000A0008F0200088F0200088F0200088F020008EC
:1000B0008F0200088F0200088F0200088F020008DC
:1000C0008F0200088F0200088F0200088F020008CC
:1000D0008F020008D14600088F0200088F02000836
:1000E0008F0200088F0200088F0200088F020008AC
:1000F0008F0200088F0200088F0200088F0200089C
:100100008F0200088F0200088F0200088F0200088B
:100110008F0200088F0200088F0200088F0200087B
:100120008F0200088F0200088F0200088F0200086B
:100130008F0200088F0200088F0200088F0200085B
:100140008F0200088F0200088F0200088F0200084B
:100150008F0200088F0200088F0200088F0200083B
:100160008F0200088F0200088F0200088F0200082B
:100170008F0200088F0200088F02000800000000B4
:100180008F0200088F0200088F0200088F0200080B
:100190008F0200088F0200088F0200088F020008FB
:1001A0008F0200088F0200088F02000800F002F89A
:1001B00000F049F80AA090E8000C82448344AAF1B8
:1001C0000107DA4501D100F03EF8AFF2090EBAE8B6
:1001D0000F0013F0010F18BFFB1A43F0010318477B
:1001E0008C530000AC530000103A24BF78C878C18B
:1001F000FAD8520724BF30C830C144BF04680C602D
:10020000704700000023002400250026103A28BF74
:1002100078C1FBD8520728BF30C148BF0B60704778
:10022000662905F04F80002070471FB505F045F89E
:1002300000F012FB04000020002104F0B1FFE06098
:100240001FBD10B510BD00F01FFC1146FFF7EDFFFC
:1002500004F056FF00F03DFC03B4FFF7F2FF03BCCF
:1002600004F09BFA0D48016841F4700101600C48EC
:10027000016821F0404101600A480047FEE7FEE7BF
:10028000FEE7FEE7FEE7FEE7FEE7FEE7FEE7FEE746
:1002900005480649044A064B7047000088ED00E017
:1002A00034EF00E0AD010008302B00203033002097
:1002B000302B002072B6704762B67047EFF31080A3
:1002C00072B6704780F31088704730BF704720BF08
:1002D0007047B0FA80F0704790FAA0F0B0FA80F062
:1002E000704790FAA0F07047704700000FB40449BF
:1002F00010B503AA029800F09DFA10BC5DF814FB3B
:10030000080000202DE9F0474FF0000A8946044616
:10031000C0F820A02046E1688847002876D025282C
:1003200006D0D4E901219047206A401C2062F1E701
:10033000E168204600258847C4F81CA0064600272F
:10034000C4F818A02A2E09D0304604F01FFA38B39A
:1003500004EB8708303EC8F8186019E059F8041B10
:10036000204604EB87029161E1688847012F064629
:1003700018D1E069002820DA25F020051DE0D8F822
:10038000180000EB800006EB40003038C8F8180079
:100390002046E1688847064604F0F8F90028EED1C7
:1003A000012F0AD02E2E08D12046E16888477F1CF5
:1003B0000646022F45F02005C4DBA069002803DAB9
:1003C000404245F00105A061E80701D025F0100585
:1003D000B6B1A6F14100192802D8203645F40065CF
:1003E0004A463146204625604D46FFF719FF58B171
:1003F000012806D0ED1D25F0070000F1080989E766
:1004000004E005F1040985E730468AE7206ABDE883
:10041000F087704770477047704770472DE9FF4F6E
:100420000C461E464FF0FF378BB0D2E90001DDF8D5
:1004300060800A908A46C1F30A5505B93D460021FD
:1004400008464FF00000BAF1000F00F4400005DA52
:1004500000EB80004FF4400101EA50004FEA905950
:10046000B9F1010F00DDB9460A9850EA4A000ED0F2
:1004700044F61050A5F2FF3545432F14B8F1000F94
:100480001ED07542291E1EDDC9F100021CE0B8F124
:10049000010F4FF0000001D0302103E0F24305E0EE
:1004A0002154401CB042FBDB304600220021215485
:1004B0000B99C1F80880C1E900200FB0BDE8F08FAA
:1004C000BD1B6D1CDEE74A4600DA694206A800F053
:1004D00065FA06AB93E8070003AB83E807005046D4
:1004E0000A9900F03FFB8DE80700A0F500501F3887
:1004F00000900398002D09DD42F21F014A4608448E
:1005000003A90390684600F09EFD08E0A0F50050A6
:100510004A461F3803A90390684600F0A8FD8DE8FD
:1005200007000004000C03D04FF0FF30410800E04A
:100530001046B8F1000F03D00022009215461EE0CD
:10054000751E05D400F08CF9303262556D1EF9D558
:10055000B3460122084302D000227F1C04E0207829
:10056000302801D100227F1E002A099786D01DE085
:10057000112D07DA00F074F9303262556D1C50EA23
:100580000102F5D1084302D00098C8B10EE0002165
:10059000681E05E0235C625C63542254401E491CC3
:1005A0008142F7DBAB46A81B401E0990002004F8EF
:1005B0000B000B98099AC0F80880C0E9002B7CE773
:1005C00011264FF0000859E72DE9F04F8846044600
:1005D000D21D22F0070191B0D1E90001CDE90A0155
:1005E00004F0BCF802460B98C00F01D02D2007E0A4
:1005F0002068810701D52B2002E0202101EAC000FC
:10060000032A099001D0072A05DB0346414620460C
:1006100000F084F90BE12078800601D5E06900E064
:100620000620B8F1650F814606D0B8F1660F18D0E4
:10063000B8F1670F70D131E00020B9F1110F0090CF
:1006400001DB112301E009F101030AAA01A90CA8A9
:10065000FFF7E4FEDDE90C70002609F10105834691
:1006600047E001204B4600904FF000470AAA01A93D
:100670000CA8FFF7D3FEDDE90DB00C995D4600260E
:1006800010B909F101000D18B9EB050003D4C0F150
:10069000FF3609F10105A5EB09002BE0B9F1010FC7
:1006A00001DA4FF001090020B9F1110F009048461E
:1006B00001DD112300E003460AAA01A90CA8FFF7F7
:1006C000ADFEDDE90C704D4600268346207800071C
:1006D0000AD4AB4500DA5D4601A8012D04DD4119BD
:1006E00011F8011C302907D04F4502DA17F1040F29
:1006F00004DA012082460FE06D1EEEE7002F02DCD7
:10070000ED1B3E4403E0781CA84200DD7D1CB81BB5
:1007100000F1010A4FF000472078000703D4AA45F2
:1007200001DB4FF0FF3A0021B7F1004F0DF1430814
:100730008DF8431024D002202B23002F01DA7F42B2
:100740002D230A21021EA0F1010000DC5FB197FBFE
:10075000F1FC97FBF1F201FB1C7C17460CF1300C0D
:1007600008F801CDEEE7A8F1010003702188090522
:1007700001D5452100E06521A0F1010800F8011C28
:1007800009980FA9A1EB0807FF1D00B1012041192D
:1007900001EBEA70A1693844081A401EA061207874
:1007A000C00602D42046AFF30080099828B1D4E9EE
:1007B00001219047206A401C20622078C00622D583
:1007C0002046AFF300801EE0002E04DBB34502DDBF
:1007D00001A8805D00E03020D4E901219047206A23
:1007E000401C2062761CAAF101005FEA000A0AD1CF
:1007F00000F032F8C0680168405CD4E901219047FC
:10080000206A401C2062281EA5F10105DCDC07E0FF
:10081000D4E9012118F8010B9047206A401C20629E
:10082000381EA7F10107F3DC2046AFF30080032058
:1008300011B043E6074B70B50D467B4400F05BF802
:100840000446284600F018F910B14FF0FF3070BD93
:10085000204670BDA748000000487047EC2A0020E1
:1008600030B5B0F10A024FEA900E71F100034EEA82
:10087000817EB0EB0E0061EB91014FEA101E4EEA53
:10088000017E10EB0E0041EB11114FEA102E4EEAE3
:10089000016E10EB0E0041EB11214FEA104E4EEAB3
:1008A000014E10EB0E0041EB1141401841F10001E7
:1008B0004FEAD00040EA41704FEAD10110EB8005C9
:1008C0004FEA810444EA907444EB01046D1944EB4F
:1008D0000404521BA3414FF0000348BF0A3200D565
:1008E00030BD401C41F1000130BD000001694A1CCF
:1008F00002610878704700B58FB0CDE90131002161
:10090000059105497944CDE9031011466846FFF782
:10091000F9FC0FB000BD0000E5FFFFFF2DE9F0413D
:100920001F46044603260168072A01F4006004DB21
:1009300008B116A505E016A503E008B115A500E06D
:1009400015A521F010002060A069C01EA0610FB1A4
:10095000401EA0612046AFF300804FB1D4E90121D1
:1009600038469047206A401C2062C01C206206E086
:10097000206AFAE7D4E9012115F8010B9047761EA9
:10098000F8D22046AFF30080BDE8F0814E414E0022
:100990006E616E00494E4600696E66002DE9F047B3
:1009A000814616468AB0334878440DC88DE80D005C
:1009B00030487844801C03AC0DC884E80D0041F633
:1009C0009B300844372190FBF1F290FBF1F5A5F143
:1009D000800501FB12041B3C02D56442012000E0AB
:1009E0000020DFF890A080460027FA44AAF1BE0A52
:1009F0000DE0E00709D03246684607EB47010AEBF5
:100A0000810100F034FB8DE8070064107F1C002C8E
:100A1000EFD1184F7F44AC3F18E0E80714D007EB44
:100A200004100DF1180A90E80E008AE80E00C06864
:100A3000F04201D198190890324606A903A800F0A7
:100A400016FB03AB83E807006D10641C002DE4D196
:100A500032466946B8F1000F03A802D000F0F3FA5D
:100A600001E000F004FBC9E90001C9F808200AB060
:100A7000BDE8F087A84B0000007B00F080007047C5
:100A800000487047CC2A00207546FFF7F9FFAE46B4
:100A900005006946534620F00700854618B020B58A
:100AA000FFF7F6FBBDE820404FF000064FF00007CF
:100AB0004FF000084FF0000B21F00701AC46ACE806
:100AC000C009ACE8C009ACE8C009ACE8C0098D4673
:100AD000704710B50446AFF300802046BDE81040D3
:100AE000FFF7BABB4FF0013C50F8042B51F8043B20
:100AF0009A4221D1A2EB0C03934313EACC1317D1F2
:100B000050F8042B51F8043B9A4215D1A2EB0C0388
:100B1000934313EACC130BD150F8042B51F8043B48
:100B20009A4209D1A2EB0C03934313EACC13DBD016
:100B30004FF00000704700BFD01A01BAB1FA81F13E
:100B400001F0180122FA01F0CB40C1F12001DBB223
:100B5000C0B2C01A2CFA01F3D11A914311EAC311A1
:100B6000E6D170475FEA400C08BF91F0000F4FEAF2
:100B70008C234FEAC12243EA51514FEA1C5018BF5F
:100B800000F5F0404FEA300018BF41F000415FEA45
:100B90006C5C00F02980BCF1FF3F08BF40F0804052
:100BA0007047130C06BF12044FF0100C4FF0000CEE
:100BB000130E04BF12020CF1080C130F04BF120134
:100BC0000CF1040C930F04BF92000CF1020CD30F34
:100BD00004BF52000CF1010C11464FF00002A0F1CD
:100BE0001F00A0EB0C00704711F0004F08BF7047CA
:100BF00031F000413FF4D5AF0B0C06BF09044FF0B4
:100C0000100C4FF0000C0B0E04BF09020CF1080C85
:100C10000B0F04BF09010CF1040C8B0F04BF8900FA
:100C20000CF1020CCB0F04BF49000CF1010CCCF10C
:100C30002003A0EB0C0022FA03F302FA0CF241EAC3
:100C4000030100F10100704720F07F4C80EA0300AF
:100C500023F07F47ACEB070303F57C5300F0004023
:100C600003F1FF032DE980494FEA154B09B44FEA20
:100C7000144325EA0B4E24EA03480FF2042606EB40
:100C8000132749083E785FEA320203FB0667C7F57F
:100C9000000707FB06F64FEA54374FEAD64606F13F
:100CA000020607FB066CCCF1005C4FEA1C472CEAFD
:100CB000074C07FB06F40CFB06F504EB15464FEA60
:100CC000961634BF00204FF000404FEAD13706FBA4
:100CD00007FC4FEA1C4C0CFB0BF7D21B03FB0CF779
:100CE00061EB07010CFB0EF7B0EB074072EB17420C
:100CF0000CFB08F734BFA2EB0742B2EB074261EBF3
:100D000017414FEA0C444FEA910706FB07FC4FEAF4
:100D10001C4C0CFB0BF7B0EBC74072EB573203FBDC
:100D20000CF734BFA2EBC742B2EBC74261EB5731BD
:100D30000CFB0EF7B0EBC70072EB57720CFB08F719
:100D400034BFA2EBC702B2EBC70261EB5771039F3E
:100D50004FEA816141EA921104EBCC044FEAD137AA
:100D60004FEA826206FB07FC42EA90124FEA80607B
:100D70004FEA1C4C0CFB0BF7D21B03FB0CF761EB8F
:100D800007010CFB0EF7B0EB074072EB17420CFBB0
:100D900008F734BFA2EB0742B2EB074261EB174101
:100DA0004FEA8C554FEA910704EB9C2406FB07FCA5
:100DB0004FEA1C4C0CFB0BF7B0EBC74072EB573201
:100DC00003FB0CF734BFA2EBC742B2EBC74261EBA7
:100DD00057310CFB0EF7B0EBC70072EB57720CFBF0
:100DE00008F734BFA2EBC702B2EBC70261EB577141
:100DF00015EB4C254FEA816141EA92114FEA82627C
:100E00004FEAD13742EA901206FB07FC44F1000496
:100E10004FEA80604FEA1C4C0CFB0BF7D21B03FB24
:100E20000CF761EB07010CFB0EF7B0EB074072EB20
:100E300017420CFB08F734BFA2EB0742B2EB0742A4
:100E400061EB174115EB1C154FEA813141EA9241E4
:100E50004FEA823242EA90424FEA80304FEA0C7603
:100E600044F1000448EA03434EEA0B484FF0000EF9
:100E7000B2EB080C71EB030724BF624639464EEB18
:100E80000E0E4FF0000B0018524149414BEB0B0B7B
:100E9000B2EB080C71EB03077BF1000B24BF624639
:100EA00039464EEB0E0E4FF0000B001852414941EF
:100EB0004BEB0B0BB2EB080C71EB03077BF1000B58
:100EC00024BF624639464EEB0E0E51EA020718BFA8
:100ED00046F0010616EB0E7655F1000254F10001C2
:100EE00003D5BDE88901BDE80088BDE88901BDE8FA
:100EF0000048B619524141EB0101A3F101037047CB
:100F000080807F7E7D7C7B7A797877767675747346
:100F1000727171706F6E6E6D6C6C6B6A6A69686805
:100F2000676666656464636362616160605F5F5E9B
:100F30005E5D5D5C5C5B5B5A5A5959585857575611
:100F40005655555554545353525252515150505076
:100F50004F4F4F4E4E4D4D4D4C4C4C4B4B4B4A4AC8
:100F60004A4949494848484747474746464645450C
:100F70004544444444434343434242424241414145
:100F8000002B26D4770021D01CB54FEA370703B4D5
:100F90004FF010004FF010014FF000000FBCBDE803
:100FA00010400BF1010BBBF1010F08BF5FEA1707FF
:100FB00022BF12F1010211F101014FF0004143F192
:100FC000000300F0004043EA00007047F9D35708DF
:100FD000DAE746EA064613F1400F4FEA16461FDDF0
:100FE00013F1200FDFBF16430A46002120335B4276
:100FF000C8D0C3F1200746EA064602FA07F74FEACF
:10100000164646EA0706C3F1200722FA03F201FA60
:1010100007F721FA03F14FF0000342EA0702B1E7B4
:1010200046EA020646EA06464FEA164646EA010640
:10103000BCBF46EA0646360C4FF000034FF00002F4
:101040004FF000019EE72DE9C048934630B491E887
:10105000380007C831EA400C48BF34EA430C03D5D6
:10106000FFF7F2FDFFF78CFFF0BCBDE800882DE92B
:10107000C048934630B491E8380007C810F0804F5C
:1010800008BF13F0804F03D100F005F8FFF778FF99
:10109000F0BCBDE8008820F07F4780EA030023F021
:1010A0007F4C07EB0C03A3F57C5300F00040A3F149
:1010B000FE0392F0000F00F0B38095F0000F00F0F7
:1010C00077802DE901494FEA11404FEA144621EAA1
:1010D000004800FB06FC24EA064708FB06F607FB6F
:1010E00008F800FB07F718EB06484CEB164C4FEAE4
:1010F000124B18EB07484FEA15464CEB174022EA13
:101100000B4E0BFB06FC25EA06470EFB06F607FB1B
:101110000EFE0BFB07F71EEB064E4CEB164C4FF08A
:1011200000061EEB074E4CEB174B18EB0B0840F17B
:10113000000018EB0E0B58EB000840F100008F1A6E
:101140004FF000013CBFC943661B14BFB5EB040C54
:1011500000213CBFC943F61B4FEA17444EEA8E0EEE
:1011600027EA04454FEA1C4704FB07622CEA074CB8
:1011700005FB07F70CFB05F604FB0CFC16EB07461A
:1011800042EB174216EB0C4642EB1C421BEB0606E9
:1011900058EB0202414146EA9E0601D5BDE80189AD
:1011A000B619524141EB0101A3F10103BDE80189E8
:1011B0004FEA14454FEA114724EA054621EA074C55
:1011C00005FB07F406FB07F70CFB06F105FB0CFC1F
:1011D00011EB074144EB17444FEA124711EB0C4166
:1011E00044EB1C4422EA074C05FB07F206FB07F719
:1011F0000CFB06F605FB0CFC16EB074642EB174210
:1012000016EB0C4642EB1C456A1854F1000148BF2E
:101210007047B619524141EB0101A3F10103704738
:1012200095F0000F37D04FEA11424FEA144721EAF8
:10123000024624EA074C02FB07F106FB07F70CFB0A
:1012400006F402FB0CFC14EB074441EB17414FEA98
:10125000154714EB0C4441EB1C4125EA074C02FBFB
:1012600007F506FB07F70CFB06F602FB0CFC16EB7A
:10127000074645EB174516EB0C4645EB1C42121989
:1012800051F1000148BF7047B619524141EB0101CD
:10129000A3F1010370474FEA14454FEA114724EACE
:1012A000054621EA074C05FB07F106FB07F70CFB97
:1012B00006F24FF0000605FB0CFC12EB074241EB77
:1012C000174112EB0C4251EB1C4148BF704792187A
:1012D00041EB0101A3F1010370470000EFF3098125
:1012E00041B1F1EE101A40F8041D20ED200A3B49EF
:1012F0000A6810607047B0EC200A02C8E1EE101ACC
:1013000037490A681060704772B64EF62250CEF226
:10131000000040F2FF01C0F20001017040F2E00065
:10132000C2F20000016881F3088840F25600C2F260
:10133000000040F25701C2F200010A78027040F248
:10134000D805C2F2000540F2DC01C2F200010A68D1
:101350002A60106880F30988EFF3148040F00200DF
:1013600080F31488BFF36F8FBDE8F00F0FBCBDE8AA
:10137000005006BC62B608471A484FF08051016021
:10138000704718484FF080510160704772B6EFF314
:10139000098020E9F00F40F2D805C2F200052E685E
:1013A0003060744601F0A4FA40F25600C2F2000028
:1013B00040F25701C2F200010A78027040F2DC01EB
:1013C000C2F200010A682A6044F0F40E1068B0E826
:1013D000F00F80F3098862B670470000D800002043
:1013E000DC00002004ED00E010B503F07FFD0446B2
:1013F000204610BD10B500F01FF800F019F810BD20
:1014000010B5002400BF00BFFEF758FF044600BF20
:1014100000BF1021054800F03FF800BF00BF204684
:10142000FEF750FF00BF00BF10BD0000B014002049
:1014300010B5FFF7E5FF10BD10B5002002490860A8
:1014400000F00AF810BD00001000002001490860FB
:10145000704700001000002010B5FFF7C5FF0446DC
:101460000848006840F0807006490860002006497E
:1014700048600846006840F0010008602046FFF719
:10148000E5FF10BDFCED00E0001000E001494868F8
:1014900070470000001000E030B505460C462246BB
:1014A0000021284600F001F830BD2DE9F041054645
:1014B0000B4694460027002402E03F021F43641CB1
:1014C000042CFAD3604605F00306294646B134469B
:1014D00003E001F8013B401E641C08B1042CF8D362
:1014E0000A4601E080C2001F0428FBD2114602E038
:1014F00001F8013B401E0028FAD1BDE8F081704799
:1015000010B50348006810B101480068804710BD5D
:101510002800002070B5044600F0AEF800204149D4
:1015200008704149087041490870414908604149C3
:1015300008604149087041490870414908704149B3
:10154000086041490860414908604148006858B155
:101550004048056845B13E48066803E0761E002015
:1015600028602D1D002EF9D100203B4908603B4921
:1015700008603B4908603B4908603B4908603B49BB
:1015800008603B4908603B49087001F029FF01F001
:1015900063FF204601F020FC208800B170BD20468A
:1015A00001F080FC208800B1F8E7204601F086FCBD
:1015B000208800B1F2E7204601F058FD208800B1F4
:1015C000ECE7204601F03CFF208800B1E6E720462A
:1015D00002F002F8208800B1E0E7204602F0A8FA05
:1015E000208800B1DAE7204601F024FC208800B111
:1015F000D4E7204602F0DCFE208800B1CEE720468A
:1016000002F06AF9208800B1C8E7204602F034FFF2
:10161000208800B1C2E701F00BFBFFF770FF00BFAD
:10162000BCE700003C0000203D00002070000020CE
:10163000D8000020DC0000205600002057000020C9
:101640005800002064000020680000206C0000208A
:1016500008530008045300081C000020200000204C
:1016600024000020280000202C0000203000002052
:10167000340000209E0000200648006806490968E2
:1016800000EB8100054908600846006820F007006B
:10169000086070470453000808530008E000002069
:1016A00008480078012800D0704707480078FA28D9
:1016B00000DBF9E704480078401C0349087000BFCC
:1016C000F2E700003D0000203C00002010B500249F
:1016D0002D480078012800D010BD00BFFEF7EEFDB8
:1016E000044600BF2948007828B900BF2046FEF70D
:1016F000E9FD00BFF0E725480078401E2349087047
:1017000008460078002805DD00BF2046FEF7DAFD18
:1017100000BFE1E71E480078002805DD00BF204635
:10172000FEF7D0FD00BFD7E701F046FE194908706B
:101730000846007800EB4000174951F8200017498F
:1017400008600846006816490968884205D100BF4C
:101750002046FEF7B7FD00BFBEE710480068D0F88E
:101760008C00401C0D490968C1F88C000D480068C8
:10177000401C0C490860FFF704FE00BF2046FEF73E
:10178000A1FD00BF00BFA7E73D0000203C000020F6
:1017900070000020570000205C250020DC000020A5
:1017A000D8000020940000202DE9F04104460E46A8
:1017B0001546002724B945F6C3502880BDE8F081BE
:1017C00000BF00BFFEF77AFD074600BF00BF10480C
:1017D0002060666000202062606284F82800E06279
:1017E00004F1080001F0F3FC204601F0CFFB0948AA
:1017F0000088401C0749088000BF00BF3846FEF73C
:1018000061FD00BF00BF0020288000BFD6E70000B8
:101810004D555458540000202DE9F04788B0054636
:10182000894617461C46109E4FF0000A2DB945F612
:10183000C350308008B0BDE8F0871FB1B7F5004F46
:1018400002D100E000BF03E045F625603080F1E7FB
:1018500000BF62492868884203D045F6C4503080F2
:10186000E8E70CB10020206000BF00BFFEF726FDB6
:10187000824600BF00BF95F82800B8B958480068F4
:101880006862012085F828000CB1E86A20602946CA
:101890005348006801F092FB00BF00BF5046FEF7BE
:1018A00011FD00BF00BF00203080C3E74C49686ACB
:1018B0000968884212D195F82800401C85F8280054
:1018C0000CB1E86A206000BF00BF5046FEF7FAFC8A
:1018D00000BF00BF45F282703080ABE707F40040E4
:1018E00050B100BF00BF5046FEF7ECFC00BF00BF88
:1018F00046F2B01030809DE73A48007800280ADDB3
:1019000000BF00BF5046FEF7DDFC00BF00BF46F63B
:10191000635030808EE7D5F8248098F8370030493E
:10192000096891F83710884206DD2D48006890F864
:101930003710404602F04CF84B46042229466846D0
:1019400001F0A0FB00BF00BF5046FEF7BBFC00BF8C
:1019500000BF00F00FF900BF00BFFEF7AFFC8246EA
:1019600000BF00BF1E48006890F8350030B1012864
:101970000CD002281AD0032821D110E01CB118483D
:101980000068806C2060002030801CE01CB114488E
:101990000068806C206046F2A910308013E00CB122
:1019A0000020206047F2D92030800CE01CB10C48A8
:1019B0000068806C206045F6C250308003E046F637
:1019C0002E60308000BF00BF00BF00BF5046FEF752
:1019D00079FC00BF00BF00BF2CE700004D555458F4
:1019E000D8000020700000202DE9F84F04468946F9
:1019F00015464FF0000B24B945F6C3502880BDE8CA
:101A0000F88FB9F1000F03D0B9F5004F02D100E013
:101A100000BF03E045F625602880F0E700BF52498B
:101A20002068884203D045F6C4502880E7E700BF0D
:101A300000BFFEF743FC834600BF00BF4B49606A0E
:101A4000096888420AD000BF00BF5846FEF73AFC3A
:101A500000BF00BF45F281702880D0E7FFF716FD78
:101A600080462834C4F804802078401E207014F882
:101A7000280900280ADD00BF00BF5846FEF722FCF7
:101A800000BF00BF45F283702880B8E72146374881
:101A9000006801F0DDFA04F1080ABAF8080068B934
:101AA0000020606284F8280000BF00BF5846FEF79F
:101AB00009FC00BF00BF00202880A0E72B48006879
:101AC00090F837002949096891F83810884228D0E1
:101AD0002648006801F0A6FA06462448006890F8F7
:101AE0003810B14204DA2148006890F8380000E06C
:101AF000304606461D48006890F83700B04210DABC
:101B00001A48006801F00EFD1848006880F8376038
:101B1000304601F071FC1548006801F0E5FC1448FE
:101B20000670DAF8000087686762012084F82800F0
:101B30002146384601F042FA00231A46394620462B
:101B4000CDF8008001F0B6FB00BF00BF5846FEF79D
:101B5000B9FB00BF00BF09F4004008B900F00AF863
:101B60000020288000BF4AE74D555458D800002077
:101B70005600002010B5002420480078002800DD21
:101B800010BD1F480078002800DDF9E700BFFEF710
:101B900095FB044600BF01F00FFC1A490870084687
:101BA000007800EB4000184951F820001749086000
:101BB0000846006816490968884205D100BF2046DA
:101BC000FEF780FB00BFDBE710480068D0F88C0010
:101BD000401C0E490968C1F88C000E480068401C82
:101BE0000C490860FFF7C8FB00BF2046FEF76AFB00
:101BF00000BFBFF36F8F00BFC2E700003C000020B2
:101C000070000020570000205C250020DC00002030
:101C1000D80000209400002070B504460025144828
:101C20000078012803D045F68960208070BD1148F6
:101C30000078FA2803DB45F209202080F6E700BF90
:101C400000BFFEF73BFB054600BF00BF0948007818
:101C5000401C0849087001F093FC00BF00BF2846F3
:101C6000FEF730FB00BF00BF0020208000BFDDE793
:101C70003D0000207000002070B5044600251C487F
:101C80000078012803D045F68960208070BD19488E
:101C9000007818B946F664502080F7E700BF00BF0F
:101CA000FEF70CFB054600BF00BF12480078401E3F
:101CB000104908700846007800280ADD00BF00BF00
:101CC0002846FEF7FFFA00BF00BF46F663502080AB
:101CD000DCE701F063FC00BF00BF2846FEF7F2FA24
:101CE00000BF00BFFFF746FF0020208000BFCDE708
:101CF0003D0000207000002010B504461248007816
:101D0000E8B901F059FB11490870084600781049FC
:101D100008700E48007800EB40000E4951F8200092
:101D20000D490860084600680C4908600120064912
:101D30000870FFF7E9FA43F69920208002E045F6A3
:101D40008A60208010BD00003D0000205700002068
:101D5000560000205C250020DC000020D800002078
:101D60002DE9F04107464FF0000800BF00BFFEF725
:101D7000A5FA804600BF00BF00203B4908803B49D0
:101D800008603B4908603B4908603B4908603B49A3
:101D9000088100BF00BF4046FEF794FA00BF00BFB5
:101DA00000BF00BFFEF78AFA804600BF00BF34487C
:101DB000046800BF00BF4046FEF784FA00BF00BFC2
:101DC00021E000BF00BFFEF779FA804600BF00BFE8
:101DD00000207434E06320602063A061A082E08270
:101DE0006062A062FFF752FB2062743C04F160065F
:101DF0000020B081D4F8B84000BF00BF4046FEF7D5
:101E000061FA00BF00BF002CDBD100BF00BFFEF7AE
:101E100055FA804600BF00BF1A48056800BF00BFE2
:101E20004046FEF74FFA00BF00BF12E000BF00BF00
:101E3000FEF744FA804600BF00BF05F120060020EF
:101E4000B081AD6900BF00BF4046FEF73BFA00BF5E
:101E500000BF002DEAD102F0A1F902F0B3FB00208F
:101E60003880BDE8F08100007E0000209000002056
:101E7000A4000020C8000020680000205025002099
:101E8000980000205C000020F8B504460026694652
:101E9000324800F01BFDBDF8000018B1BDF800008D
:101EA0002080F8BD6A460021022000F07DFDBDF8CB
:101EB000000018B1BDF800002080F2E700BF00BFAD
:101EC000FEF7FCF9064600BF00BF00202449086069
:101ED00000BF00BF3046FEF7F5F900BF00BF002588
:101EE0002048006820490968884205D91D480068D3
:101EF0001D490968B0FBF1F525B91A4800680A21A7
:101F0000B0FBF1F56A460021284600F04DFD694618
:101F1000124800F0DFF9BDF8000018B1BDF800006C
:101F20002080BEE700BF00BFFEF7C8F9064600BF2D
:101F300000BF00200D490860094800680C4908608E
:101F400001200C49087000BF00BF3046FEF7BAF907
:101F500000BF00BF0020208000BFA2E70C2A0020A5
:101F60008000002038530008205300089000002013
:101F7000840000208C00002010B50348006810B1D8
:101F800001480068804710BD2C0000202DE9FF4F5C
:101F900087B004469046DDE91BA5DDE91496179F3E
:101FA000002003902CB947F2AD1028800BB0BDE89B
:101FB000F08FB8F1000F03D147F24F102880F5E7FA
:101FC0001EB946F62F602880F0E750480068874227
:101FD00003D246F630602880E8E71698B84203D36B
:101FE00046F631602880E1E7B9F1400F03D346F2AD
:101FF00073202880DAE7B9F13F0F06D144488442C4
:1020000003D046F273202880D0E7204601F0A0FDDF
:10201000002028800AF0010090B10AF0020078B197
:1020200005960020069008E00021059801600598BB
:10203000001D05900698401C06900698B842F3D300
:10204000169806EB80000490CDE9007A32464046AF
:10205000049B0A9900F0D8FA0590C4F828800A98E1
:10206000E0620898206284F8379084F838900598E8
:1020700020600498A0601A98606066622764A4F8E3
:1020800044A04FF0000B08E0002104F1780040F874
:102090002B100BF1010000F0FF0BBBF1000FF3D090
:1020A00004F16000189900F069FF204600F036F84E
:1020B00000BF00BFFEF702F9039000BF00BF94F815
:1020C000370001F099F9204601F00EFA204601F0A0
:1020D000F5FC10480088401C0E4908800E48007826
:1020E000012807D000BF00BF0398FEF7EBF800BF40
:1020F00000BF5BE700BF00BF0398FEF7E3F800BF37
:1021000000BFFFF737FD00BF50E700003453000861
:10211000902400209C0000203D00002010B50446C3
:102120000348006818B1204601490968884710BD76
:102130001C0000202DE9F04104460E464FF0000837
:102140005B48844204D147F24C103080BDE8F081F6
:102150007CB900BF00BFFEF7B1F8804600BF00BFEA
:102160005448046800BF00BF4046FEF7ABF800BF0C
:1021700000BF00BF00BFFEF7A1F8804600BF00BF50
:1021800094F83600082860D2DFE800F004090E1049
:10219000080A0F11204601F0C5F961E060E000BFB8
:1021A000204601F0CFFF5BE000BF00BF00BF94F806
:1021B000340008283BD2DFE800F0040705080E09C8
:1021C0000A0600BF00BF33E000BF00BF00BF2046CB
:1021D00001F035F82CE0206BC068456A15F8377FB0
:1021E000204601F02CF828786978373D884212D0D3
:1021F00095F8370094F8371088420CD1284600F043
:1022000011FF074695F83800B84202DA95F8380011
:1022100000E038460746002084F8340095F837007F
:10222000B84203D03946284601F0D2FB00E000BF97
:1022300000BF94F83600032803D094F8360007282E
:1022400002D1204601F07EFF0AE000BF00BF4046F9
:10225000FEF738F800BF00BF46F62D60308075E706
:1022600000BFE06B10B1204600F0ACFE04F160004E
:1022700000F062FE204600F021F8204601F036FC16
:102280000D480088401E0C490880204601F060FC83
:10229000FF2084F8360000BF00BF4046FEF712F86A
:1022A00000BF00BF00203080FFF764FC00BF4DE797
:1022B00090240020D80000209C00002010B5044687
:1022C0000348006818B1204601490968884710BDD5
:1022D0002000002070B504460D46002600BF00BF58
:1022E000FDF7ECFF064600BF00BF1CB10D480068BB
:1022F00084420AD100BF00BF3046FDF7E3FF00BFB4
:1023000000BF47F25710288070BD00BF00BF3046A5
:10231000FDF7D8FF00BF00BF2946204601F076FC3C
:1023200000BFF1E7D800002010B50446034800685C
:1023300018B1204601490968884710BD24000020D3
:102340002DE9F04780460E4614461D464FF0000921
:102350001EB1B6F5004F02D100E000BF05E045F622
:10236000256028800020BDE8F08700BF0CB1002068
:10237000206000BF00BFFDF7A1FF814600BF00BF86
:102380005F480068C06CA8B35D480068C06C401E20
:102390005B490968C8645A480068C76C1CB1584852
:1023A0000068806C2060FFF771F855490968896CF6
:1023B000401A53490968C1F8A00051480068D0F894
:1023C000A4004F490968D1F8A010884207D24C48B0
:1023D0000068D0F8A0004A490968C1F8A40000BF0D
:1023E00000BF4846FDF76EFF00BF00BF00202880F9
:1023F0003846B8E7FFE706F4004058B100BF00BF19
:102400004846FDF75FFF00BF00BF46F2B0102880CE
:102410000020A8E73B48007800280BDD00BF00BF84
:102420004846FDF74FFF00BF00BF46F663502880C7
:10243000002098E7434607220021084600F022FECC
:1024400000BF00BF4846FDF73DFF00BF00BFFFF7DC
:1024500091FB00BF00BFFDF731FF814600BF00BF09
:102460002748006890F8350020B1012826D00328BD
:1024700034D12CE0FCB122480068806C2060FFF76A
:1024800005F81F490968896C401A1D490968C1F897
:10249000A0001B480068D0F8A40019490968D1F8C9
:1024A000A010884207D216480068D0F8A00014494E
:1024B0000968C1F8A4000020288013E01CB110486E
:1024C0000068806C206046F2A91028800AE00CB1F8
:1024D0000020206047F2D920288003E046F62E60D5
:1024E000288000BF00BF06480068C76C00BF00BF5F
:1024F0004846FDF7E7FE00BF00BF384633E700005F
:10250000D8000020700000202DE9F04106460D465D
:1025100014461DB1B5F5004F02D100E000BF05E043
:1025200045F6256020800020BDE8F08100BFFEF761
:10253000ADFF8046234642462946304601F0F2FB75
:1025400007463846F0E700002DE9F04704460E46FE
:1025500017461D464FF0000A26B946F2D5202880BE
:10256000BDE8F0871FB946F2D5202880F8E700BF04
:1025700000BFFDF7A3FE824600BF00BF0CB9214893
:102580000468206868B900BF00BF5046FDF79AFE96
:1025900000BF00BF00203060386047F25210288032
:1025A000DEE794F8440000F0010068B900BF00BF06
:1025B0005046FDF787FE00BF00BF00203060386046
:1025C00047F254102880CBE700BF00BF5046FDF70C
:1025D00079FE00BF00BF4FF00008D4F8249003E05C
:1025E00009F1040908F10108D9F800000028F7D022
:1025F000C6F80080206CA0EB08003860002028801E
:1026000000BFADE7D8000020F0B50446DDE905566F
:1026100002EB850020F007004FF0807C071F384652
:10262000C7F800C0071F38463C60DFF834C2071FF8
:102630003846C7F800C04FF0123C071F3846C7F8AD
:1026400000C04FF0033C071F3846C7F800C04FF0EA
:10265000023C071F3846C7F800C0071F38463B60DA
:10266000071F384639604FF0113C071F3846C7F83E
:1026700000C04FF0103C071F3846C7F800C04FF0AD
:10268000093C071F3846C7F800C04FF0083C071F39
:102690003846C7F800C04FF0073C071F3846C7F858
:1026A00000C04FF0063C071F3846C7F800C04FF087
:1026B000053C071F3846C7F800C04FF0043C071F11
:1026C0003846C7F800C006F00407002F7ED04FF050
:1026D000007C071F3846C7F800C0DFF888C1071F15
:1026E0003846C7F800C0DFF880C1071F3846C7F872
:1026F00000C0DFF878C1071F3846C7F800C0DFF810
:1027000070C1071F3846C7F800C0DFF868C1071F4F
:102710003846C7F800C0DFF860C1071F3846C7F861
:1027200000C0DFF858C1071F3846C7F800C0DFF8FF
:1027300050C1071F3846C7F800C0DFF848C1071F5F
:102740003846C7F800C0DFF840C1071F3846C7F851
:1027500000C0DFF838C1071F3846C7F800C0DFF8EF
:1027600030C1071F3846C7F800C0DFF828C1071F6F
:102770003846C7F800C0DFF820C1071F3846C7F841
:1027800000C0DFF818C1071F3846C7F800C04FF077
:10279000834C071F3846C7F800C0DFF804C1071F85
:1027A0003846C7F800C0DFF8FCC0071F3846C7F836
:1027B00000C0DFF8F4C0071F3846C7F800C0DFF8D4
:1027C000ECC0071F3846C7F800C000E047E0DFF85C
:1027D000E0C0071F3846C7F800C0DFF8D8C0071FA1
:1027E0003846C7F800C0DFF8D0C0071F3846C7F822
:1027F00000C04FF0824C071F3846C7F800C0DFF812
:10280000BCC0071F3846C7F800C0DFF8B4C0071FB8
:102810003846C7F800C0DFF8ACC0071F3846C7F815
:1028200000C04FF0814C071F3846C7F800C0DFF8E2
:1028300098C0071F3846C7F800C04FF0804C071FEC
:102840003846C7F800C04FF07E5C071F3846C7F80F
:1028500000C04FF0000C071F3846C7F800C0F0BD9D
:102860000D3D00080000F8410000F0410000E84183
:102870000000E0410000D8410000D0410000C84104
:102880000000C0410000B8410000B0410000A84174
:102890000000A041000098410000904100008841E4
:1028A00000007041000060410000504100004041C4
:1028B0000000304100002041000010410000E040D5
:1028C0000000C0400000A0400000404070B5054638
:1028D0000C460648854203D147F25B10208070BD4C
:1028E0002146284601F000FB00BFF8E790240020B5
:1028F00010B52948006890F8440000F0040020B1A9
:10290000254909680868FEF7E9FC2448006890F842
:10291000440000F0040020B1204909680868FEF76F
:10292000EAFC1F48006810B11D4800688047FEF7A8
:10293000ADFD04461848006818490968884215D05A
:1029400015480068D0F89400201A13490968C1F8A6
:10295000900011480068D0F898000F490968D1F834
:10296000901008440C490968C1F898000B480068A9
:10297000C0F8944008480068D0F8B00009490968D8
:10298000884205D20748006803490968C1F8B000C9
:1029900000200449086010BDD8000020DC000020A1
:1029A000300000206C0000202DE9F04105460E4665
:1029B0001446002723480078002804DD46F66350BB
:1029C0002080BDE8F08136B1022E05D0042E0AD059
:1029D000082E09D101E000BF00BF1DB947F27E20DB
:1029E0002080EEE704E003E045F625602080E8E77C
:1029F00000BF00BF00BFFDF761FC074600BF00BF7E
:102A00002346324629461048006801F03DFB2088E5
:102A100038B100BF00BF3846FDF754FC00BF00BF0F
:102A2000CFE70948006800F07DFD00BF00BF3846D1
:102A3000FDF748FC00BF00BFFFF79CF80020208096
:102A400000BFBEE770000020D80000202DE9FF5F26
:102A500005460E4617469846DDE90EA40020009074
:102A60005A480078002804DD46F663502080BDE80F
:102A7000FF9F0AF00E0BBBF1000F09D0BBF1020F54
:102A800007D0BBF1040F10D0BBF1080F0ED101E04D
:102A900000BF00BFB8F1000F06D12FB926B91DB98C
:102AA00047F27E202080E2E704E003E045F625605F
:102AB0002080DCE700BF2AF01E0008B1012000E002
:102AC000002003900398012803D145F6256020805B
:102AD000CDE70AF01000102802D100BF012000E06D
:102AE000002002900298012818D0B8F57A7F03D30D
:102AF00047F27B202080BAE73B2F03DD47F27A20A4
:102B00002080B4E73B2E03DD47F279202080AEE73A
:102B1000632D12DD47F278202080A8E742F20F7083
:102B2000864203DD47F279202080A0E7B5F57A7F61
:102B300003DB47F27820208099E72548D0F8009001
:102B40004FF4FA70B0FBF9F0404400FB09F04FF489
:102B50007A71B0FBF1F14FF461606843C6EB061285
:102B600000EB8200384400FB09100190019838B353
:102B700000BF00BFFDF7A2FB009000BF00BF2346CF
:102B80005A4614480199006801F07EFA208838B14D
:102B900000BF00BF0098FDF795FB00BF00BF66E7D0
:102BA0000C48006800F0BEFC00BF00BF0098FDF7B5
:102BB00089FB00BF00BFFEF7DDFF0020208002E0A0
:102BC00047F27E20208000BF51E700007000002007
:102BD00038530008D800002008B500F01FF86A46F6
:102BE00000210A48FFF790FC09480068401E084988
:102BF00008600846006838B90648006808606A46F8
:102C000000210548FFF780FC08BD00001C290020BA
:102C1000D4000020D00000200C2A002010B503486A
:102C2000006810B101480068804710BD34000020E2
:102C3000244A2549254A264A2649274A2748284A18
:102C4000284A294A294A2A482A482B4A2B482C4AEA
:102C50002C482D4A2D482E482E482F482F4A304ABE
:102C6000304A3148314A324A32483348334834488E
:102C7000344835483548364A364A374A374A38485C
:102C800038483948394A3A4A3A4A3B483B483C482E
:102C90003C493D483D4A3E4A3E4A3F4A3F4A404AF7
:102CA000404A4148414A424A42484348434A444ACA
:102CB0004448454A454A4648464800BF00BF00BF11
:102CC000704700006C530008D45400086D5300088E
:102CD0006E530008705300087453000878530008BE
:102CE00075530008A0530008A1530008A253000820
:102CF000A4530008A6530008AA530008AC530008C8
:102D0000CC530008CE530008D0530008D25300081B
:102D1000D4530008D6530008D853000808540008BC
:102D2000095400080A5400080C5400080E54000806
:102D30000F540008105400081254000814540008DE
:102D400016540008185400081A5400081C540008AF
:102D50004C5400084D5400084E5400084F540008CD
:102D60005054000852540008545400087C54000881
:102D70007D5400087E5400087F54000880540008E9
:102D800082540008845400088854000889540008BC
:102D90008A5400088B5400088C5400088D54000895
:102DA0008E5400088F540008905400089254000874
:102DB000935400089454000896540008985400084E
:102DC000995400089C540008CC540008CD540008C5
:102DD000CE540008D05400080021034A1160034A71
:102DE0001180018070470000400000204400002056
:102DF000002419E000BF00BFFDF760FA044600BFE1
:102E000000BF0A480068401C08490860084800687C
:102E1000401C0749086000BF00BF2046FDF752FA7A
:102E200000BF00BFFEF76CFBE4E7000038000020A5
:102E30008000002010B58AB0044600200E490860CA
:102E40000B2000210591CDE90704069108460B49A6
:102E500009680B4A12680B4B1B68CDE90132CDE9BA
:102E600003103F200023084A08A100900C48FFF7F8
:102E70008DF80AB010BD000038000020E0520008B4
:102E8000DC520008D8520008F12D000875432F4F7E
:102E9000532D4949492049646C65205461736B0086
:102EA000902400200021034A1160034A1180018010
:102EB00070470000480000204C00002070B501461B
:102EC0001A4D2D681DB945F21E750D8070BD184D47
:102ED0002D881DB945F21D750D80F7E7134D286843
:102EE0002A681032124D2D886D1EACB2002308E006
:102EF0000260002545600581C560103010325D1C00
:102F0000ABB2A342F4DB0025056045600581C560D6
:102F1000064D2D68074E3560054D2D88B58000257E
:102F2000F58035810D8000BFD0E700001853000800
:102F3000105300085025002010B5014648894B89E0
:102F4000002B17DD0A680C4B1B6813600A4C4B689A
:102F500023602346DB884C891B1B074CE3802346F8
:102F60009B884C892344044CA38000234B818B8194
:102F70000B604B6010BD0000502500200181002235
:102F800042818281026042607047000009A1C161F4
:102F9000002141610849096811B90021816105E0FA
:102FA0000549096881610449096848610249086066
:102FB000704700002000000050000020C26B0A6231
:102FC000C16370472DE9F8430546EC6B26E0D4F861
:102FD0002090FEF75BFA0646E6622146284600F09E
:102FE00037F804F10808B8F8080020B9002084F880
:102FF0002800606211E0D8F800008768656201204F
:1030000084F8280021463846FFF7D8FF00231A46E7
:1030100039462046009600F04DF94C46002CD6D19A
:10302000BDE8F88330B504463F2004F13C010BE0D5
:103030000D68AB682BB19D6895F83720824200DAA5
:1030400010460D6805F120010D68002DF0D130BD4E
:10305000024602F13C0002E0036803F1200003682D
:103060008B42F9D103681B6A036070470021034A51
:103070001160034A11800180704700005000002059
:10308000540000202DE9F04105460C4616461F4627
:103090001548006880F8346000201349096881F8F9
:1030A000350039461048006800F07CFC6CB104F132
:1030B0000808EC60012229460B48006800F016F869
:1030C0002946404600F088F807E0002006490968D4
:1030D000A1F84600044909680863034801682046CE
:1030E00000F018F8BDE8F081D800002010B5A0F875
:1030F0004620016300230AE000244C600C600C6150
:103100004C610C83CC61886020315C1CA3B293427B
:10311000F2DB10BD30B548B14568C1F8BC5000F1D4
:103120000804226893681D6AC56113E091F8345061
:10313000022D02D0072D08D103E007A5C1F8BC502D
:1031400007E007A5C1F8BC5003E008A5C1F8BC50D2
:1031500000BF00BF30BD00005461736B2051000000
:103160005461736B2053656D000000002000000067
:1031700030B507A5C1F8BC5000F1080422681AB1A7
:1031800093681D6AC56101E001A5C56130BD0000FD
:10319000200000002DE9F0410446256BB4F846708C
:1031A00011E0D5F80C8008F108063089012807D90C
:1031B0002946304600F05DF82946304600F00CF80C
:1031C0002035781E87B2002FEBD1BDE8F0810021B9
:1031D0000160416001817047F0B58E6896F8375004
:1031E00007893FB90127078100274F600F60016001
:1031F000416023E007897F1C0781026806E094682C
:1032000094F83770AF4200DD02E05268002AF6D130
:1032100000BF32B900274F6043680B6059604160BE
:103220000CE017682FB9116000270F604A60016039
:1032300004E013680B604A6059601160F0BD2DE92D
:10324000F0410446256BB4F846600AE0D5F80C80DE
:1032500008F108072946384600F00BF82035701EA3
:1032600086B2002EF2DC0020A4F846002063BDE800
:10327000F08110B50489012C03D10024046044605E
:1032800011E00C6824B94A680024146002600AE066
:103290004C6824B90B6800245C60436003E00B6851
:1032A0004A685A6013600489641E048100244C60DB
:1032B0000C6010BD2DE9F84306460C4617469846AB
:1032C000089D94F8360008285BD2DFE800F004057A
:1032D00008090607323300BF00BF00BF52E000BF3D
:1032E00094F83400032807D143463A462146304635
:1032F000009500F04AF803E0A765A4F85C80A56497
:1033000036B12046FFF79BFF21463046FFF730FFDE
:1033100094F83600032802D1204600F013FF20461F
:1033200000F0ACF800203434A070607004F8340968
:1033300028E000BF94F83400032807D143463A46FA
:1033400021463046009500F020F803E0A765A4F878
:103350005C80A56436B12046FFF771FF21463046F8
:10336000FFF706FF94F83600072802D1204600F048
:10337000E9FE04203434A0700020607004F83409A1
:1033800000E000BF00BFBDE8F883F0B50446059E2D
:10339000086BB1F846500AE0C768A74204D104613F
:1033A00042610383C66104E020306F1EBDB2002D70
:1033B000F2DC00BFF0BD000070B50025074C03E053
:1033C00005F12000C5B2241D20680028F8D020682F
:1033D000FCF77FFF2844C5B2284670BD14000020CA
:1033E000002004E00021034A42F82010401C02287B
:1033F000F8D370471400002030B5420900F01F03D5
:103400000121C3F11F04A140034C54F822400C4396
:10341000014D45F8224030BD1400002030B542096E
:1034200000F01F030121C3F11F04A140034C54F815
:1034300022408C43014D45F8224030BD140000204D
:103440000021034A1160034A118001807047000087
:103450005C0000206000002000210AE001EB410236
:10346000054B03EB820000220281026042604A1C8D
:10347000D1B24029F2D370475C25002010B5044634
:1034800094F83700FFF7B8FF94F83700054909783A
:10349000884203D1204600F027F802E0204600F0E1
:1034A00003F810BD5600002010B590F8373003EB3C
:1034B00043030C4C04EB83010B893BB901230B81C3
:1034C0000023C36003610860486009E00B895B1C4E
:1034D0000B810B68C360002303610A6810610860F8
:1034E00010BD00005C25002010B590F8373003EBCC
:1034F00043030B4C04EB83010B893BB901230B8184
:103500000023C36003610860486008E00B895B1C0E
:103510000B810023C3604A680261D060486010BD1F
:103520005C2500202DE9F041054695F8370000EBB9
:103530004000124901EB80042F69EE6887B946B953
:10354000002020812060606095F83700FFF766FF5B
:103550000EE02089401E208100203061266007E0B7
:103560002089401E2081FE600EB9676000E037614F
:1035700000202861E860BDE8F08100005C250020A3
:1035800010B504480078012803D1FDF77FFF0249F8
:10359000086010BD700000206400002010B50A48CB
:1035A000007880B9FDF772FF08490968441A084895
:1035B0000068A04201D20648046006480068A042A4
:1035C00001D20448046010BD700000206400002097
:1035D000680000206C0000200021034A1160034AAB
:1035E00011800180704700007400002078000020E6
:1035F00086B00020009006E0A8490968480001AAAA
:103600000021FFF7D1F9A64800780128F4D101A8DC
:10361000FEF7A6FB0027A3480068A0490968884276
:1036200005D9A04800689D490968B0FBF1F727B9A2
:103630009C4800680A21B0FBF1F72EE1FDF726FF58
:10364000804600BF00BFFCF739FE009000BF00BFFE
:10365000954800689549086000209349086000BFBC
:1036600000BF0098FCF72EFE00BF00BF9048006826
:103670008E490968884248D98D4800688D4988423A
:1036800005D242F2107003900120029023E0884896
:1036900000688949884205D24FF47A7003900A2065
:1036A000029018E0824800688449884203D264206E
:1036B000039002900FE07E4800688149884205D25D
:1036C0000A2003904FF47A70029004E001200390E6
:1036D00042F210700290764801680298B1FBF0FA4D
:1036E0007249039809684843B0FBFAF042F210713E
:1036F000081A74490880744800880988884208DAE2
:10370000704800887049088003E042F210706D49EB
:103710000880FEF731FC002500BF00BFFCF7CEFD9E
:10372000009000BF00BF6948046800BF00BF009858
:10373000FCF7C8FD00BF00BF26E000BF00BFFCF7DC
:10374000BDFD009000BF00BF54F8980F60600020DE
:1037500044F8980900BF00BF0098FCF7B3FD00BF14
:1037600000BFD4F89C00054400BF00BFFCF7A6FDD5
:10377000009000BF00BFD4F8B84000BF00BF009861
:10378000FCF7A0FD00BF00BF002CD6D145B34948CF
:10379000854205D242F2107005904FF0010B1BE0FC
:1037A0004548854205D24FF47A7005904FF00A0BD8
:1037B00012E04248854203D26420059083460BE024
:1037C0003F48854204D20A2005904FF47A7B03E0FB
:1037D0000120059042F2107BB5FBFBF0049003E062
:1037E000002005900120049000BF00BFFCF766FD9B
:1037F000009000BF00BF3548046800BF00BF0098BC
:10380000FCF760FD00BF00BF2BE0D4F89C000599D9
:1038100048430499B0FBF1F086B242F21070864240
:1038200000D90646A4F88860B4F88A00B04201DAEC
:10383000A4F88A6001AB04F1A802111D2046FEF72E
:1038400083FE00BF00BFFCF739FD009000BF00BF42
:10385000D4F8B84000BF00BF0098FCF733FD00BFAC
:1038600000BF002CD1D11A480078012805D10020D2
:103870001749087001A8FEF773FAFDF707FEA0EBE1
:10388000080914480068484502D21248C0F8009060
:1038900001AA00213846FFF787F8CFE62053000839
:1038A0008C00002038530008800000208800002091
:1038B00084000020801A060000093D00005A6202C0
:1038C0000084D7177C0000207E0000209800002094
:1038D0007A0000209000002010B58AB00446002035
:1038E0001F4908601F4908601F4908601F49087088
:1038F0001F4908701F48006820B946F62B602080D9
:103900000AB010BD1C4800681C490968884203D2EF
:1039100046F62C602080F3E7194800783F2803D34F
:1039200046F62A602080EBE7032000210591CDE9CF
:1039300007040691084610490968124A12680D4B9F
:103940001B68CDE90132CDE903100D480078002352
:103950000D4A0EA100901248FEF718FB00BFCFE7FA
:103960008000002088000020840000208C000020BF
:103970007A000020245300082C5300083453000818
:103980001C53000828530008F135000875432F4FD9
:10399000532D4949492053746174205461736B005D
:1039A0005C28002070B504460D4645B12A462146E4
:1039B000064800F025FB032084F8360002E00220D0
:1039C00084F836002046FFF7ADFD70BDB000002042
:1039D0002DE9F04104460D4600BF002694F83770EB
:1039E00094F8360008285FD2DFE800F004191E1FA3
:1039F0001A1B20212046FFF795FD84F8375094F8D4
:103A00003700FFF7F9FC2C480068844203D12046B8
:103A1000FFF74AFD02E02046FFF766FD46E000BFE3
:103A200000BF84F8375041E000BF00BF00BF84F8FA
:103A3000375094F83400082831D2DFE800F0300421
:103A400031050B06073200BF00BF00BF2046FFF75D
:103A5000A1FB27E02046FFF79DFB206BC068466A6C
:103A6000AF4205DD96F83700A84217DC002615E0C6
:103A700096F83700B84211D13046FFF7D3FA054621
:103A800096F83800A84202DA96F8380000E0284696
:103A9000054696F83700A84200D1002602E000BF94
:103AA00000BF00BF00BF01E0BDE8F08100BF3446A9
:103AB000002C92D100BFF7E7D80000200021C0F809
:103AC000B4100949096819B90021C0F8B81007E015
:103AD00005490968C0F8B81003490968C1F8B4007D
:103AE000014908607047000098000020D0F8B42019
:103AF000D0F8B8104AB90D4B196011B10023C1F8C4
:103B0000B4300023C0F8B8300FE029B90023C2F860
:103B1000B830C0F8B43008E0C2F8B810C1F8B4202A
:103B20000023C0F8B830C0F8B430704798000020C7
:103B30000021044A1160044A1180044A1160018086
:103B400070470000980000209C0000209400002096
:103B500070B5044600202060A0606060E0602061D5
:103B60006061A061E06126A0206200206062A06226
:103B7000E062A064A065A4F85C00002104F160008C
:103B8000FFF7FCF9002020676067E067A4F8840075
:103B9000C4F88000002506E0002104F1780040F818
:103BA0002510681CC5B2002DF6D000203434A06169
:103BB000E0662067E06084F85200A06760672082BA
:103BC000E0612062A4F85400A4F85600A065E06506
:103BD000FDF75CFC0646266600206066E067207004
:103BE0006070A0704020E07020710020A060C4F8D8
:103BF0008000C4F8840004A0C4F88800343C70BD80
:103C00003F5461736B0000002000000070B5044653
:103C10000D46002600BF00BFFCF750FB064600BF64
:103C200000BF0020288094F8360008285ED2DFE824
:103C300000F0040506071227394B00BF00BF00BF84
:103C400000BF00BF3046FCF73DFB00BF00BF47F29E
:103C50005310288055E014F8860F401E207014F889
:103C6000860928B9002084F836002046FFF706FCB4
:103C700000BF00BF3046FCF725FB00BF00BF40E09F
:103C800014F8860F401E207014F8860910B9012020
:103C900084F8360000BF00BF3046FCF713FB00BFBE
:103CA00000BF2EE014F8860F401E207014F886091D
:103CB00010B9022084F8360000BF00BF3046FCF780
:103CC00001FB00BF00BF1CE014F8860F401E2070EF
:103CD00014F8860910B9032084F8360000BF00BF2D
:103CE0003046FCF7EFFA00BF00BF0AE000BF00BF9C
:103CF0003046FCF7E7FA00BF00BF46F62D6028808B
:103D000070BD00BFFDF736FF00BFF9E708B50448F6
:103D10000068FEF709FB69460020FEF70BFA08BDB4
:103D2000D80000202DE9F8430446884617461D4672
:103D30004FF0000900BF00BFFCF7C0FA814600BF8A
:103D400000BF0CB967480468A7640020288094F875
:103D50003600082876D2DFE800F004055051060747
:103D6000525300BF00BF00BF0420012804D0022826
:103D700013D0042833D122E0E06CFF280CD100BF1F
:103D800000BF4846FCF79EFA00BF00BF46F6C5508C
:103D900028800020BDE8F88322E04FF6FF71E06C38
:103DA00088420BD100BF00BF4846FCF78BFA00BF2A
:103DB00000BF46F6C55028800020EBE710E0E06C1D
:103DC000401C58B900BF00BF4846FCF77BFA00BF53
:103DD00000BF46F6C55028800020DBE700E000BFAA
:103DE00000BFE06C401CE064E66C00BF00BF4846CA
:103DF000FCF768FA00BF00BF71E000BF00BF00BF62
:103E000094F83400072815D100231A462146184695
:103E10000097FFF74FFAE66C00BF00BF4846FCF77B
:103E200051FA00BF00BF08F4004000284AD1FDF756
:103E3000A1FE47E00420012805D0022813D0042861
:103E400033D122E03FE0E06CFF280BD100BF00BF80
:103E50004846FCF737FA00BF00BF46F6C550288039
:103E6000002097E722E04FF6FF71E06C88420BD10B
:103E700000BF00BF4846FCF725FA00BF00BF46F66A
:103E8000C5502880002085E710E0E06C401C58B940
:103E900000BF00BF4846FCF715FA00BF00BF46F65A
:103EA000C5502880002075E700E000BF00BFE06C2F
:103EB000401CE064E66C00BF00BF4846FCF702FA15
:103EC00000BF00BF0BE000BF00BF4846FCF7FAF997
:103ED00000BF00BF46F62D602880002600BF00BF4F
:103EE000304657E7D800002070B504460D4600263E
:103EF00000BF00BFFCF7E2F9064600BF00BF0CB9E7
:103F00003D4804683C48006884420ED13B48007834
:103F100000280ADD00BF00BF3046FCF7D3F900BF20
:103F200000BF46F66350288070BD0020288094F8BA
:103F30003600082850D2DFE800F0041523313F4056
:103F40004142042084F83600012084F8860020468F
:103F5000FFF7E8FA00BF00BF3046FCF7B3F900BF37
:103F600000BF44E0052084F83600012084F8860074
:103F700000BF00BF3046FCF7A5F900BF00BF36E028
:103F8000062084F83600012084F8860000BF00BFB8
:103F90003046FCF797F900BF00BF28E0072084F8FF
:103FA0003600012084F8860000BF00BF3046FCF7D1
:103FB00089F900BF00BF1AE000BF00BF00BF94F83E
:103FC0008600401C84F8860000BF00BF3046FCF726
:103FD00079F900BF00BF0AE000BF00BF3046FCF720
:103FE00071F900BF00BF46F62D6028809CE700BF36
:103FF000FDF7C0FD00BF97E7D8000020700000204B
:1040000070B51546066846B90D6500264E618E618D
:10401000C86101600126868033E0046802682B468F
:1040200024E0166D9E421DD396696EB90B6500267D
:104030008E614A61C861166DF61A1665916101605C
:104040008688761C86800CE094690B658C614A61D9
:10405000C861166DF61A1665916161618688761CD5
:10406000868070BD166D9B1B14465269002AD8D1FC
:104070000B658C6100264E61C86161618688761C83
:10408000868000BFEDE700002DE9F04104460D46B3
:1040900090461F46B8F1040F0ED1284800682E1A2A
:1040A00016F5803F01D8002E3CD10020206547F254
:1040B0007E203880BDE8F081B8F1080F29D11F4972
:1040C000606D0968081AA84205D92E461B48006889
:1040D0002844606526E01949606D0968081A2E1A9F
:1040E00016F5803F00D886B91449606D0968081A32
:1040F000B0FBF5F005FB0050616D084460650020E1
:10410000206547F27E203880D4E7606D28446065E2
:1041100008E00DB12E4605E00020206547F27E2024
:104120003880C7E7012084F836003246214604482B
:10413000FFF766FF0020388000BFBBE7A00000202B
:10414000A800002030B5C26983694169ABB929B9BB
:104150000024146094800465C4611EE000248C6116
:104160000C6D056D2C440C6511609488641E948060
:10417000002444610465C4610FE0596121B18B6181
:104180000C6D056D2C440C65002484619488641EBC
:104190009480002444610465C46130BD7047000010
:1041A0002DE9F0474FF0000900BF00BFFCF786F88B
:1041B000814600BF00BFFDF769F9064600271D4D87
:1041C0002C683CB3206D401E20651FE0781C87B230
:1041D00094F83600012806D1002084F836002046E5
:1041E000FFF74CF906E094F83600052802D10420C8
:1041F00084F83600606928602C6814B90020A88013
:1042000007E0A888401EA8800020A061206D00283B
:10421000DCD000BFEF80FDF739F9A0EB060800BF46
:1042200000BF4846FCF74EF800BF00BF4046BDE85F
:10423000F0870000A80000202DE9F05F4FF0000B90
:1042400000BF00BFFCF73AF8834600BF00BFFDF790
:104250001DF907464FF000083B4D2C68002C63D039
:10426000206D401E20655BE008F101001FFA80F818
:10427000002694F83400042802D1206BC068466AF6
:104280000020A065A4F85C00FDF700F9A0642046BA
:10429000FEF7D5FF94F83600032806D12046FFF735
:1042A000EDF8002084F8360006E094F83600072880
:1042B00002D1042084F83600032084F83500002061
:1042C00084F8340006B396F8370096F83810884220
:1042D0001AD096F8370094F83710884214D1304637
:1042E000FEF7A0FE814696F83800484502DA96F8B7
:1042F000380000E04846814696F83700484503D02C
:1043000049463046FFF764FB606928602C6814B9A1
:104310000020A88007E0A888401EA8800020A06197
:10432000206D0028A0D000BFA5F80680FDF7AEF8EC
:10433000A0EB070A00BF00BF5846FBF7C3FF00BF52
:1043400000BF5046BDE8F09FB000002008B5002730
:1043500028E06B46002211461046FDF7F1FFBDF83C
:104360000000F8B900BF00BFFBF7A8FF074600BF79
:1043700000BF0D480068401C0B49086000BF00BF2B
:104380003846FBF79FFF00BF00BFFFF709FF064657
:10439000FFF752FF0546741904480068A04201D295
:1043A00002480460D5E70000A0000020A40000201F
:1043B00010B58AB0044600202049086020490860F2
:1043C000204908601E498880C8801E498880C880AE
:1043D0001D48006820B947F2122020800AB010BDA5
:1043E0001A4800681A490968884203D247F2132024
:1043F0002080F3E7174800783F2803D347F21120C5
:104400002080EBE70B2000210591CDE90704069100
:1044100008460E490A68104909680B4B1B68CDE92C
:104420000131CDE903200B48007800230B4A0CA191
:1044300000901048FDF7AAFD00BFCFE7A0000020C4
:10444000A8000020B0000020405300084853000896
:10445000345300083C530008445300084D430008FF
:1044600075432F4F532D494949205469636B20549C
:1044700061736B001C29002010B58AB0044600202F
:104480002F4908602F4908602F4908802F4800688D
:1044900040B12F4800682D490968B0FBF1F02D4963
:1044A000086006E02A4800680A21B0FBF1F02949BB
:1044B00008602848006828490860002027490860EB
:1044C00027490860224627A12A48FDF76DF9208870
:1044D00008B10AB010BD2848006818B947F2473043
:1044E0002080F6E72548006825490968884203D2FC
:1044F00047F248302080ECE7224800783F2803D379
:1045000047F246302080E4E70B20002105910A465F
:10451000CDE907040691194800681B490968164B44
:104520001B68CDE90131CDE903021648007800236C
:10453000164A17A100901C48FDF728FD00BFC8E7E8
:10454000B8000020C0000020BC0000205453000828
:1045500038530008D0000020D4000020CC000020F8
:10456000C80000204F5320546D72204D757465783B
:1045700000000000DC2900205853000860530008A8
:1045800034530008505300085C530008C945000824
:1045900075432F4F532D4949492054696D65722049
:1045A0005461736B000000000C2A00200EB502A8B5
:1045B00001AB0022114600900148FDF72DF90EBD18
:1045C000DC290020704700001CB53FE001AB6A46C3
:1045D00000210846FDF7B4FEFFF7E8FFFCF756FFA1
:1045E00006461B480068401C1949086019480468C1
:1045F0001FE001A8FDF710FBD4F81080A069401E51
:10460000A061A06980B9A08C022802D1206AA061B3
:1046100005E0204600F022F8032084F82600A56873
:1046200015B12046E168A847444601A8FDF724FBE0
:1046300000BF002CDDD1FCF729FF871B00F030F80C
:1046400005480068B84201D203480760BEE7000091
:10465000CC000020C0000020C800002010B50E4B88
:104660001B68834206D101690B4B196039B10023E5
:104670004B6104E0416902690A6102B151610123A1
:1046800080F82630002303614361044B1B885B1EC6
:10469000024C238010BD0000C0000020BC000020A0
:1046A00008B56A4600210248FDF79EF908BD0000E2
:1046B000DC29002010B505480078012805D1FCF759
:1046C000EFFFFEF789FAFDF701F810BD3D0000206D
:1046D00010B5FCF7E5FF1E48006800F0200008B3A5
:1046E0001B484068C4B21B48008800F40040C8B9A9
:1046F0001848008800F4804060B10A2C03D00020E4
:104700001449088020E01348008840F40040114913
:10471000088019E00D2C06D10E48008840F4804036
:104720000C49088010E00B480088C0F30D000A49CE
:104730000C5408480088401C064908800846008838
:10474000C72801DD00200880FCF7C0FF10BD000075
:10475000001001400C000020E813002003B4019871
:104760004100009850EAC12018BF04204A0D18BF2C
:1047700040F0010040F2FF72B2EB515F08BF40F021
:104780000200012808BF052002B0704730380A280F
:1047900001D2012070470020704700BF7047000021
:1047A00010B500BF4FF0E022126922F004024FF072
:1047B000E0231A6100EB80035A00D31702EB537316
:1047C000C3F3C703144C237000EB80035A00D317C4
:1047D00002EB5373D910114A1268114BB3FBF2F27A
:1047E00051430E4A12684FF47A73B3FBF2F20D4B49
:1047F0001A804FF0E022126942F002024FF0E023EB
:104800001A610A22B1FBF2F25A611A46126942F0A9
:1048100001021A6110BD0000040000203853000896
:1048200040420F000600002070B504460F48007893
:10483000A0B10F48007888B90E480088844206DB92
:104840000C48008894FBF0F5284600F01FF8094852
:10485000008894FBF0F100FB114084B24FF47A71B0
:1048600004FB01F000F01AF870BD00003D000020CC
:104870003C0000200600002008B56846FDF7CCF992
:1048800008BD08B56846FDF7F7F908BD38B5044618
:104890006A4608212046FEF787F838BD2DE9F04723
:1048A000074600264FF0E020D0F814901148007819
:1048B00078430A21B0FBF1F8FFF7DEFF4FF0E0206C
:1048C000856911E04FF0E0208469A5420CD0AC422C
:1048D00002D2281B064403E0A9EB04002844064446
:1048E0002546464500D300E0ECE700BFFFF7C9FFCF
:1048F000BDE8F087040000202DED028B002425E0A8
:10490000134890ED000ADFED130A30EE200A80ED27
:10491000000A00BF00BFFBF7D1FC044600BF00BF88
:104920000B48006800F058FC41EC180B53EC182BB6
:1049300009A0FBF7DBFC00BF00BF2046FBF7C2FC71
:1049400000BF00BF4FF47A70FFF76EFFD8E700009A
:10495000000000200AD7233C666C6F61745F6E759F
:104960006DB5C4D6B5CEAA3A20252E34660D0A0000
:104970002DE9F0470C46DDE90867002100258C464B
:1049800000BF60E04FF0010808FA01F504EA050CE9
:10499000AC4557D1D0F800804FEA410A4FF00309E7
:1049A00009FA0AF928EA0908C0F80080D0F800805E
:1049B0004FEA410902FA09F948EA0908C0F80080FB
:1049C000012A01D0022A27D1D0F808804FEA410AF3
:1049D0004FF0030909FA0AF928EA0908C0F8088023
:1049E000D0F808804FEA410906FA09F948EA0908AF
:1049F000C0F80880D0F804904FF0010808FA01F8D8
:104A000029EA0809C0F80490D0F8048003FA01F9F3
:104A100048EA0908C0F80480D0F80C804FEA410A3F
:104A20004FF0030909FA0AF928EA0908C0F80C80CE
:104A3000D0F80C804FEA410907FA09F948EA090859
:104A4000C0F80C80491C10299CD3BDE8F08730B514
:104A5000CC1000F1200353F824304C07E50E0F244E
:104A6000AC40A343CD1000F1200444F82530CC1015
:104A700000F1200353F824304C07E40E02FA04F44A
:104A80002343CD1000F1200444F8253030BD000050
:104A90001CB51748006840F0010015490860084639
:104AA000006840F0040008600846006840F080009C
:104AB00008600220FF210B460022CDE900100121F1
:104AC0000C48FFF755FF0120FF210B460022CDE9DE
:104AD000001041030848FFF74BFF0120FF210B4660
:104AE0000022CDE900100C210448FFF741FF1CBD56
:104AF000303802400000024000080240001C024022
:104B00000EB500BF1AE000200D49086002A8002180
:104B10004FF4FA730A46CDE900100846FDF796FFF8
:104B200001200849C1F8840202A800214FF4FA7359
:104B30000A46CDE900100846FDF788FFE3E70000CC
:104B4000848240420080404200BF0BE0064800687B
:104B500008B9012000E00020034908604FF4FA7012
:104B6000FFF762FEF2E70000808240421CB50B486E
:104B7000006840F002000949086001200321002379
:104B80000246CDE900100648FFF7F2FE0120054974
:104B900008600549C1F880021CBD000030380240A1
:104BA0000004024084824042008040422DE9F041EE
:104BB0000746884614461D46284600F033F8C5F1DE
:104BC000040007FA00F60F20284100EA0800064317
:104BD00006F00F06E21704EBD2625211920002F1C6
:104BE000E022D2F800212146E31704EBD3635B11E6
:104BF000A4EB431C012303FA0CF31A432046E317EA
:104C000004EBD3635B119B0003F1E023C3F80021A5
:104C10000348005D40EA061001490855BDE8F081EF
:104C200000E400E00146072323EA01021202054BDB
:104C300018684FF6FF031840034B18431043014B0D
:104C4000186070470CED00E00000FA054A0A5202B5
:104C50000243014B1A60704708ED00E030B58BB09D
:104C60000446002500BFFCF7C5FB0AA8FDF70CF9B8
:104C700000BF00BFFBF722FB054600BF00BF0AA82C
:104C8000072100220592CDE90621089010468021D7
:104C90000C22244BCDE90132CDE90310042000237E
:104CA000214A22A100902448FDF770F90AA80721A3
:104CB00000220592CDE906210890104680210C22A1
:104CC0001E4BCDE90132CDE90310052000231C4A1B
:104CD0001CA100901E48FDF759F90AA807210022DF
:104CE0000592CDE90621089010464FF480711922F3
:104CF000184BCDE90132CDE9031006200023164AF6
:104D000016A100901948FDF741F900BF00BF2846E1
:104D1000FBF7D8FA00BF00BF0AA91548FFF7E4F86F
:104D20000BB030BD680A0020014B00086C65643090
:104D3000207461736B000000A8090020280D00207A
:104D4000494B00086C656431207461736B0000008E
:104D5000680C0020E80F0020F9480008666C6F61BD
:104D6000742074657374207461736B00280F0020C5
:104D7000E80000202DE9F04104460D4616461F4686
:104D80001448006840F001001249086000201149F1
:104D9000083108600F4800680F4908400D49086055
:104DA0000E48091D0860081F006820F48020091FB4
:104DB0000860002007490C3108603B46324629460E
:104DC000204600F00DF800210846FFF73FFFBDE840
:104DD000F081000000380240FFFFF6FE1030002492
:104DE000F0B504460D46002100203D4E366846F4DD
:104DF00080363B4F3E6001E04E1CB1B2384E366803
:104E000006F400361EB941F6FF76B142F4DB41F6F6
:104E1000FF76B14201D1012060E0314E4036366864
:104E200046F080562E4F40373E602E4E366846F490
:104E300040462C4F3E602A4E0836366846F41446EB
:104E4000274F08373E60264E366826F08076244F7E
:104E50003E6045EA84160127C7EB520746EA07463B
:104E600046EA036646F480061D4F3F1D3E603E1F26
:104E7000366846F080763F1F3E6000BF184E3668A9
:104E800006F00076002EF9D0174E366846F480768C
:104E9000154F3E603E46366846F400763E603E461C
:104EA000366846F480663E603E46366846F0050643
:104EB0003E600B4E0836366826F00306084F08376A
:104EC0003E603E46366846F002063E6000BF044E35
:104ED0000836366806F00C06082EF8D1F0BD000042
:104EE0000038024000700040003C024030B50A4CDF
:104EF00000250A48006800F0F000F02191FAA1F1C5
:104F0000B1FA81F120FA01F500F00CF80449495D8D
:104F100020FA01F4204630BD0024F4000838024095
:104F2000C852000870B50021002200230024002090
:104F3000294D2D6805F00C0525B1042D04D0082D50
:104F400045D103E0254844E0254842E0224D2D1F8D
:104F50002D6805F03F01204D2D1F2D6805F48005BB
:104F600095B11D4D2D1F2D6847F6C07605EA060246
:104F70001B4DB5FBF1F596FAA6F6B6FA86F622FABF
:104F800006F605FB06F311E0134D2D1F2D6847F6BD
:104F9000C07605EA0602114DB5FBF1F596FAA6F6C4
:104FA000B6FA86F622FA06F605FB06F30A4D2D1F21
:104FB0002D6805F440354FF4403696FAA6F6B6FA59
:104FC00086F6F5406D1C6C00B3FBF4F001E003487D
:104FD00000BF00BF70BD0000083802400024F4008C
:104FE00040787D01F0B52DED028B83B005460E466D
:104FF000384905FB01F000EE100AF8EE400A3001D6
:1050000000EE100AB8EE400A80EE801AB0EE418A37
:10501000BCEEC80A10EE100A84B200EE104AB8EED8
:10502000400A38EE400AF3EE000A20EE200ABCEEF9
:10503000C00A10EE107A4FF6FF7000EA0414E0196F
:1050400084B22548006840F00100234908602248E6
:105050001430006840F010001F491431086001202E
:10506000022100230A46CDE900104FF4C0611B481D
:10507000FFF77EFC072209211848FFF7E8FC07220A
:105080000A211648FFF7E3FC15488460C06820F445
:1050900000401349C8600846C06840F00800C86076
:1050A0000846C06840F00400C8600846C06840F088
:1050B0002000C8600223252203210846FFF776FD61
:1050C0000748C06840F400500549C86003B0BDEC13
:1050D000028BF0BD40420F00303802400000024019
:1050E0000010014000BF054A126802F04002002A89
:1050F000F9D0C2B2014B5A60704700000010014065
:105100008AB000240823022219214FF4B470FFF75B
:1051100031FEB420FFF744FB4FF4E1315A20FFF792
:1051200061FFFFF723FDFFF7B3FC09A8FCF7F2F9D5
:1051300000BF00BFFBF7C2F8044600BF00BF09A8CC
:10514000072100220592CDE90621089010464FF470
:10515000007133220C4BCDE90132CDE9031003205D
:1051600000230A4A0AA100900C48FCF70FFF00BF79
:1051700000BF2046FBF7A6F800BF00BF09A8FCF758
:10518000BBFD00BFFEE70000A80100205D4C000849
:105190007374617274207461736B0000E800002006
:1051A00010B500290AD00878002807D005487844AF
:1051B000FBF798FC002801D0002010BD024878447D
:1051C00010BD0000DE030000D60300000808A0F5B3
:1051D00000114FEA3101704743004FEAD30C4FEA08
:1051E0003C0C43401FBF40070CF1605113F0FE4FD1
:1051F00070471CF0006F03D100200CF00041704795
:105200000CF0004343EA507010B540EACC0000F0C7
:105210000EF800BF000000924FEA0001FFF7D6BF72
:105220004FF000414FF00000A1F5002170470EF152
:10523000020E2EF0030E5EF8044B244204D44FEA13
:105240004102B2F17F4F11D84FEA4003B3F17F4FD3
:105250000CD80ED14FEAD07CB2F17F4F0CEB4C0C46
:105260000CF1020C08BF4CEBD17C04E04FF0080CB1
:1052700001E04FEAD17C0CEB4C0324FA03F404F078
:105280000704B4F1040C06D20EEB840CBDE8104008
:105290004CF0010C6047DFE80CF0070802024FF009
:1052A0000040A0F5800010BD0846420018BFD2F1B2
:1052B000807288BF00F0004010BD4FF04070E1EEFA
:1052C000100A7047FBF780B90000000001020304D8
:1052D0000102030406070809C01400200C000000A6
:1052E000800000000002000000000000000000003C
:1052F00000000000000000000000000000000000AE
:1053000000000000C0160020800000000002000025
:105310006400000040060000C01800203E000000AD
:105320000A000000001F00200A00000064000000C6
:105330009001000040000000E803000001000000B0
:10534000902000200C0000008000000000020000FF
:105350000200000064000000902200200C00000009
:105360008000000000020000D00F000001010100D9
:105370007856341200010000000000000000000018
:10538000000000000000000000000000000000001D
:10539000000000000000000000000000000000000D
:1053A00001010100280004000000000000000000CE
:1053B00000000000000000000000000000000000ED
:1053C00000000000000000000000000001002000BC
:1053D000010010000C0010000000000000000000A0
:1053E00000000000000000000000000000000000BD
:1053F00000000000000000000000000000000000AD
:105400000000000000000000010101003000010068
:1054100020000C00200040000800040000000000F4
:10542000000000000000000000000000000000007C
:10543000000000000000000000000000000000006C
:105440000000000000000000000000000101010158
:10545000300000000000000000000000000000001C
:10546000000000000000000000000000000000003C
:105470000000000000000000000000000101010128
:1054800028000C00000300000401010101010101DA
:1054900001000101C000080001010000000000003F
:1054A00000000000000000000000000000000000FC
:1054B00000000000000000000000000000000000EC
:1054C00000000000000000000000000001013000AA
:1054D000C4760000F106000002400000000000A0B9
:1054E0000000000005400000000000C800000000AF
:1054F0000C4000000000409C00000000194000002B
:105500000020BCBE0000000034400000BFC91B8E5C
:1055100000000004B5400000504BCFD06607E2CF3A
:10552000010000006C4100003E8251AADFEEA7346A
:1055300001000000D9420000DCB5A0E23A301F971C
:10554000FFFFFFFFB4450000FD25A0C8E9A3C14F40
:10555000FFFFFFFFFF3F0000000000800000000091
:10556000FF3F00000000008000000000A855000878
:1055700000000020E4000000E80100088C5600084C
:10558000E40000204C320000040200081C0000006F
:1055900043000000F8FFFFFF0C0000000E000000B9
:1055A0000F0000002E0000000000000000000000BE
:1055B00000000000000000000000000000000000EB
:1055C00000000000000000000000000000000000DB
:1055D00000000000000000000000000000000000CB
:1055E00000000000000000000000000000000000BB
:1055F00000000000000000000000000000000000AB
:10560000000000000000000000000000000000009A
:10561000000000000000000000000000000000008A
:10562000000000000000000000000000000000007A
:10563000000000000000000000000000000000006A
:10564000000000000000000000000000000000005A
:10565000000000000000000000000000000000004A
:10566000000000000000000000000000000000003A
:10567000000000000000000000000000000000002A
:0C5680000000000000000000000000001E
:04000005080001AD41
:00000001FF
