:03000000020919D9
:0C091900787FE4F6D8FD75812A020742C1
:100026004B45593120646F776E0D0A004B455932A6
:1000360020646F776E0D0A004B45593320646F7745
:100046006E0D0A004B45593420646F776E0D0A0019
:100056004B45593520646F776E0D0A004B4559366E
:1000660020646F776E0D0A004B45593720646F7711
:100076006E0D0A004B45593820646F776E0D0A00E5
:100086004B4559312075700D0A004B455932207584
:10009600700D0A004B4559332075700D0A004B450B
:1000A60059342075700D0A004B4559352075700D71
:1000B6000A004B4559362075700D0A004B455937D5
:1000C6002075700D0A004B4559382075700D0A00D1
:1000D6004D79205044495553424431322063686972
:1000E6007027732049442069733A20002E20494422
:1000F60020697320636F72726563742120436F6E8B
:1001060067726174756C6174696F6E73210D0A0D87
:100116000A002E20494420697320696E636F72724B
:100126006563742120576861742061207069747951
:10013600210D0A0D0A002A2A2A2A2A2A2A2A2A2AC6
:100146002A2A2A2A2A2A2A2A2A2A2A2A2A2A2A2A09
:100156002A2A2A2A2A2A2A2A2A2A2A2A2A2A2A2AF9
:100166002A2A2A2A2A2A2A2A2A2A2A2A2A2A2A2AE9
:100176002A2A2A2A2A2A2A2A2A2A0D0A00000000BE
:100186002A2A2A2A2A2A202020202020202020202D
:100196002020A1B6C8A6C8A6BDCCC4E3CDE655535B
:1001A60042A1B7C1B7CFB0B3CCD0F22020202020D7
:1001B60020202020202020202020202020202A2A25
:1001C6002A2A2A2A0D0A000000002A2A2A2A2A2A6E
:1001D6002020202020202020202020202020202019
:1001E6002020535443383943353252432043505527
:1001F60020202020202020202020202020202020F9
:1002060020202020202020202A2A2A2A2A2A0D0AD5
:10021600000000002A2A2A2A2A2A2020202020201C
:10022600202020202020202020BDA8C1A2C8D5C67D
:10023600DAA3BA0000000000000000000000000081
:1002460000000000000000000000000000000000A8
:1002560000000000000000000000000000004E6FDB
:1002660076203031203230323000000000000000AD
:100276000000000000000000000000000000000078
:100286000000000000000000000000000000000068
:100296000000000000000000000000000000000058
:1002A6000000000000000000202020202020202048
:1002B6002020202020202020202020202A2A2A2A10
:1002C6002A2A0D0A000000000000000000000000BD
:1002D6000000000000000000000000000000000018
:1002E6000000000000000000000000000000000008
:1002F60000002A2A2A2A2A2A2020202020202020FC
:1003060020202020202020BDA8C1A2CAB1BCE4A381
:10031600BA0000000000000000000000000000001D
:1003260000000000000000000000000000000000C7
:1003360000000000000000000000000031393A35DE
:10034600323A3538000000000000000000000000CE
:100356000000000000000000000000000000000097
:100366000000000000000000000000000000000087
:100376000000000000000000000000000000000077
:100386000000000000002020202020202020202027
:10039600202020202020202020202020202A2A2A39
:1003A6002A2A2A0D0A0000000000000000000000B2
:1003B6000000000000000000000000000000000037
:1003C6000000000000000000000000000000000027
:1003D6002A2A2A2A2A2A20202020202020202020DB
:1003E6002020202020D7F7D5DFA3BA74616B656E75
:1003F6006F202020202020202020202020202020A8
:1004060020202020202020202020202020202A2AD2
:100416002A2A2A2A0D0A000000002A2A2A2A2A2A1B
:100426002A2A2A2A2A2A2A2A2A2A2A2A2A2A2A2A26
:100436002A2A2A2A2A2A2A2A2A2A2A2A2A2A2A2A16
:100446002A2A2A2A2A2A2A2A2A2A2A2A2A2A2A2A06
:100456002A2A2A2A2A2A2A2A2A2A2A2A2A2A0D0A33
:040466000000000092
:100551007826E670030205FFE630E00F7BFF7A00A4
:1005610079261208F57826E654FEF67826E630E17B
:100571000F7BFF7A0079321208F57826E654FDF6F2
:100581007826E630E20F7BFF7A00793E1208F57893
:1005910026E654FBF67826E630E30F7BFF7A0079F6
:1005A1004A1208F57826E654F7F67826E630E40F85
:1005B1007BFF7A0079561208F57826E654EFF67833
:1005C10026E630E50F7BFF7A0079621208F578267E
:1005D100E654DFF67826E630E60F7BFF7A00796E87
:1005E1001208F57826E654BFF67826E630E70F7B49
:0F05F100FF7A00797A1208F57826E6547FF62211
:100600007829E670030206AEE630E00F7BFF7A0041
:1006100079861208F57829E654FEF67829E630E165
:100620000F7BFF7A0079901208F57829E654FDF6E1
:100630007829E630E20F7BFF7A00799A1208F57884
:1006400029E654FBF67829E630E30F7BFF7A007940
:10065000A41208F57829E654F7F67829E630E40F75
:100660007BFF7A0079AE1208F57829E654EFF67828
:1006700029E630E50F7BFF7A0079B81208F5782972
:10068000E654DFF67829E630E60F7BFF7A0079C280
:100690001208F57829E654BFF67829E630E70F7B93
:0F06A000FF7A0079CC1208F57829E6547FF6220C
:10074200E4F519F51A120908D2AF1208B91208D83D
:10075200E4F518E51875F04AA4243CF9740135F063
:10076200FA7BFF1208F50518E518C3940B40E41252
:10077200000E8E198F1A7BFF7A0079D61208F5AF18
:100782001AAE19120813E51AB4120DE519B41008BD
:100792007BFF7A0079F280067BFF7A0179181208D2
:0F07A200F5782AE6F4F5A012055112060080F250
:1008990000300031003200330034003500360037B3
:1008A9000038003900410042004300440045004639
:1008D800C2AF53890F438920759850438780758D1F
:0D08E800F4758BF4D2ACD28ED29CD2AF222C
:03002300020925AA
:0C092500309803C29832C299752200324B
:0A0948008F99752201E52270FC2250
:10086200AE077F301209487F78120948EEC4540F50
:1008720025E02499F582E43408F583740193FF128C
:100882000948EE540F25E02499F582E43408F583F3
:07089200740193FF02094805
:1008F50012046AFF600C120948740129F9E43AFAF6
:0309050080EE225F
:0806AF008F0B8E0A8D098C08E7
:1006B700750C00750D09E47B0AFAF9F8AF0BAE0A61
:1006C700AD09AC081204BFEB2430FF740E250DF8FA
:1006D700A607AF0BAE0AAD09AC08E47B0AFAF9F836
:1006E7001204BF8F0B8E0A8D098C08E50D150D704E
:1006F70002150CE50DB4FFBEE50CB4FFB9E4F50C2B
:10070700F50D740E250DF8E6B4300E050DE50D70E8
:1007170002050C6409450C70E9C3E50D940AE50C64
:10072700648094805014740E250DF8E6FF12094872
:0A073700050DE50D70E3050C80DFF1
:010741002295
:04081300AD07AC067B
:10081700751B30751C78E4F5217B05FAED540F251F
:10082700E0FFE433FE74992FF58274083EF5837474
:100837000193FF741B2BF8A607ECC4F854F0C868A3
:10084700FCEDC4540F48FDEB1B70011AEB64014A21
:0B08570070CA7B007A00791B0208F5D4
:0B093D005389F0438901D2A9D28C221B
:03000B000207B138
:1007B100C0E0C0D075D000C000C001758CDC758A66
:1007C10010E5236044E590F47827F67927E7086679
:1007D100600B782576007827E608F6802C782506C8
:1007E100E6C39401402376017828E6782AF6782436
:1007F100E6F4782A56782646F6782AE6F4782456DE
:10080100782946F608E67824F6D001D000D0D0D079
:02081100E032D3
:1008B9007590FFE47827F608F67825F6782AF67811
:0F08C90026F67829F67824F612093D75230122C8
:10090800D2A0D2A1D2A2D2A3D2A4D2A5D2A6D2A733
:0109180022BC
:0C093100D2B5C2B68F80D2B67580FF220E
:08095200C2B5C2B7AF80D2B7F5
:01095A00227A
:10000E007FFD120931120952AD077C00120952EF21
:03001E00FEAF052D
:0100210022BC
:10046A00BB010689828A83E0225002E722BBFE0290
:09047A00E32289828A83E49322C3
:1004830075F008758200EF2FFFEE33FECD33CDCC30
:1004930033CCC58233C5829BED9AEC99E5829840B3
:1004A3000CF582EE9BFEED9AFDEC99FC0FD5F0D690
:1004B300E4CEFBE4CDFAE4CCF9A88222B800C1B9BA
:1004C3000059BA002DEC8BF084CFCECDFCE5F0CBF8
:1004D300F97818EF2FFFEE33FEED33FDEC33FCEB31
:1004E30033FB10D703994004EB99FB0FD8E5E4F9EC
:1004F300FA227818EF2FFFEE33FEED33FDEC33FCD9
:10050300C933C910D7059BE99A4007EC9BFCE99ACC
:10051300F90FD8E0E4C9FAE4CCFB2275F010EF2F11
:10052300FFEE33FEED33FDCC33CCC833C810D70711
:100533009BEC9AE899400AED9BFDEC9AFCE899F84C
:0E0543000FD5F0DAE4CDFBE4CCFAE4C8F922DF
:00000001FF
