:0300000002106883
:0C106800787FE4F6D8FD75814B0209FB8F
:100026004B45593120646F776E0D0A004B455932A6
:1000360020646F776E0D0A004B45593320646F7745
:100046006E0D0A004B45593420646F776E0D0A0019
:100056004B45593520646F776E0D0A004B4559366E
:1000660020646F776E0D0A004B45593720646F7711
:100076006E0D0A004B45593820646F776E0D0A00E5
:100086004B4559312075700D0A004B455932207584
:10009600700D0A004B4559332075700D0A004B450B
:1000A60059342075700D0A004B4559352075700D71
:1000B6000A004B4559362075700D0A004B455937D5
:1000C6002075700D0A004B4559382075700D0A00D1
:1000D6004D79205044495553424431322063686972
:1000E6007027732049442069733A20002E20494422
:1000F60020697320636F72726563742120436F6E8B
:1001060067726174756C6174696F6E73210D0A0D87
:100116000A002E20494420697320696E636F72724B
:100126006563742120576861742061207069747951
:10013600210D0A0D0A002A2A2A2A2A2A2A2A2A2AC6
:100146002A2A2A2A2A2A2A2A2A2A2A2A2A2A2A2A09
:100156002A2A2A2A2A2A2A2A2A2A2A2A2A2A2A2AF9
:100166002A2A2A2A2A2A2A2A2A2A2A2A2A2A2A2AE9
:100176002A2A2A2A2A2A2A2A2A2A0D0A00000000BE
:100186002A2A2A2A2A2A202020202020202020202D
:100196002020A1B6C8A6C8A6BDCCC4E3CDE655535B
:1001A60042A1B7C1B7CFB0B3CCD0F22020202020D7
:1001B60020202020202020202020202020202A2A25
:1001C6002A2A2A2A0D0A000000002A2A2A2A2A2A6E
:1001D6002020202020202020202020202020202019
:1001E6002020535443383943353252432043505527
:1001F60020202020202020202020202020202020F9
:1002060020202020202020202A2A2A2A2A2A0D0AD5
:10021600000000002A2A2A2A2A2A2020202020201C
:10022600202020202020202020BDA8C1A2C8D5C67D
:10023600DAA3BA0000000000000000000000000081
:1002460000000000000000000000000000000000A8
:1002560000000000000000000000000000004E6FDB
:1002660076203231203230323000000000000000AB
:100276000000000000000000000000000000000078
:100286000000000000000000000000000000000068
:100296000000000000000000000000000000000058
:1002A6000000000000000000202020202020202048
:1002B6002020202020202020202020202A2A2A2A10
:1002C6002A2A0D0A000000000000000000000000BD
:1002D6000000000000000000000000000000000018
:1002E6000000000000000000000000000000000008
:1002F60000002A2A2A2A2A2A2020202020202020FC
:1003060020202020202020BDA8C1A2CAB1BCE4A381
:10031600BA0000000000000000000000000000001D
:1003260000000000000000000000000000000000C7
:1003360000000000000000000000000032313A33E7
:10034600323A3432000000000000000000000000D5
:100356000000000000000000000000000000000097
:100366000000000000000000000000000000000087
:100376000000000000000000000000000000000077
:100386000000000000002020202020202020202027
:10039600202020202020202020202020202A2A2A39
:1003A6002A2A2A0D0A0000000000000000000000B2
:1003B6000000000000000000000000000000000037
:1003C6000000000000000000000000000000000027
:1003D6002A2A2A2A2A2A20202020202020202020DB
:1003E6002020202020D7F7D5DFA3BA74616B656E75
:1003F6006F202020202020202020202020202020A8
:1004060020202020202020202020202020202A2AD2
:100416002A2A2A2A0D0A000000002A2A2A2A2A2A1B
:100426002A2A2A2A2A2A2A2A2A2A2A2A2A2A2A2A26
:100436002A2A2A2A2A2A2A2A2A2A2A2A2A2A2A2A16
:100446002A2A2A2A2A2A2A2A2A2A2A2A2A2A2A2A06
:100456002A2A2A2A2A2A2A2A2A2A2A2A2A2A0D0A33
:040466000000000092
:100ACB007847E67003020B79E630E00F7BFF7A0084
:100ADB0079261210157847E654FEF67847E630E192
:100AEB000F7BFF7A0079321210157847E654FDF62A
:100AFB007847E630E20F7BFF7A00793E12101578CB
:100B0B0047E654FBF67847E630E30F7BFF7A007934
:100B1B004A1210157847E654F7F67847E630E40F9B
:100B2B007BFF7A0079561210157847E654EFF6786A
:100B3B0047E630E50F7BFF7A007962121015784794
:100B4B00E654DFF67847E630E60F7BFF7A00796EE6
:100B5B001210157847E654BFF67847E630E70F7B5F
:0F0B6B00FF7A00797A1210157847E6547FF62248
:100B7A00784AE67003020C28E630E00F7BFF7A0021
:100B8A007986121015784AE654FEF6784AE630E17C
:100B9A000F7BFF7A007990121015784AE654FDF619
:100BAA00784AE630E20F7BFF7A00799A12101578BC
:100BBA004AE654FBF6784AE630E30F7BFF7A00797F
:100BCA00A4121015784AE654F7F6784AE630E40F8C
:100BDA007BFF7A0079AE121015784AE654EFF67860
:100BEA004AE630E50F7BFF7A0079B8121015784A89
:100BFA00E654DFF6784AE630E60F7BFF7A0079C2E0
:100C0A00121015784AE654BFF6784AE630E70F7BA9
:0F0C1A00FF7A0079CC121015784AE6547FF62243
:1009FB00E4F509F50A121028D2AF120FA2120FE07C
:100A0B00E4F508E50875F04AA4243CF9740135F0C7
:100A1B00FA7BFF1210150508E508C3940B40E4128E
:100A2B00104A8E098F0A7BFF7A0079D6121015AF08
:100A3B000AAE09120EB4E50AB4120DE509B410089A
:100A4B007BFF7A0079F280067BFF7A01791812100E
:100A5B0015120FC1120FFD784BE6F4F5A0120ACB5D
:100A6B00120B7A20B2F17FF412108012108F8F0BC1
:100A7B00E50B30E7051210C480DDE50B30E60512FF
:100A8B00105B80D3E50B30E00512069C80C9E50BAB
:100A9B0030E10512103980BFE50B30E2051210CDA5
:100AAB0080B5E50B30E3051210D680ABE50B30E4D7
:100ABB00051210DF80A1E50B30E59C1210E8809742
:100F620000300031003200330034003500360037E3
:100F72000038003900410042004300440045004669
:100FE000C2AF53890F438920759850438780758D10
:0D0FF000F4758BF4D2ACD28ED29CD2AF221D
:0300230002107454
:0C107400309803C29832C29975330032E4
:0A10BA008F99753301E53370FC22B5
:100F0300AE077F301210BA7F781210BAEEC4540FB6
:100F130025E02462F582E4340FF583740193FF1214
:100F230010BAEE540F25E02462F582E4340FF58302
:070F3300740193FF0210BAE4
:10101500120870FF600C1210BA740129F9E43AFA4B
:0310250080EE2238
:080CCD008F158E148D138C129B
:100CD500751600751709E47B0AFAF9F8AF15AE1415
:100CE500AD13AC12120969EB2430FF74182517F8FF
:100CF500A607AF15AE14AD13AC12E47B0AFAF9F8EA
:100D05001209698F158E148D138C12E5171517703E
:100D1500021516E517B4FFBEE516B4FFB9E4F516DE
:100D2500F51774182517F8E6B4300E0517E5177092
:100D35000205166409451670E9C3E517940AE51618
:100D450064809480501474182517F8E6FF1210BAC1
:0A0D55000517E51770E3051680DFAF
:010D5F002271
:040EB400AD07AC06D4
:100EB800750C30750D78E4F5127B05FAED540F25A5
:100EC800E0FFE433FE74622FF582740F3EF58374FD
:100ED8000193FF740C2BF8A607ECC4F854F0C8680B
:100EE800FCEDC4540F48FDEB1B70011AEB64014A7A
:0B0EF80070CA7B007A00790C02101514
:0B10A4005389F0438901D2A9D28C22AD
:03000B00020E5290
:100E5200C0E0C0D075D000C000C001758CDC758ABE
:100E620010E5346044E590F47848F67948E708667E
:100E7200600B784676007848E608F6802C784606BD
:100E8200E6C39401402376017849E6784BF678452B
:100E9200E6F4784B56784746F6784BE6F4784556B2
:100EA200784A46F608E67845F6D001D000D0D0D090
:020EB200E0322C
:100FA2007590FFE47848F608F67846F6784BF678BE
:0F0FB20047F6784AF67845F61210A475340122F6
:10102800D2A0D2A1D2A2D2A3D2A4D2A5D2A6D2A70C
:011038002295
:10046A00B6CFBFAA555342C1ACBDD32E0D0A005513
:10047A005342C1ACBDD32E0D0A00555342D7DCCF2F
:10048A00DFB9D2C6F00D0A00555342D7DCCFDFB828
:10049A00B4CEBB0D0A00555342B6CBB5E330CAE41D
:1004AA00B3F6D6D0B6CF2E0D0A00555342B1EAD7CD
:1004BA00BCCAE4C8EBC7EBC7F33A2000BBF1C8A13A
:1004CA00D7B4CCAC2E0D0A00BBF1C8A1C3E8CAF65A
:1004DA00B7FB2D2D00C9E8B1B8C3E8CAF6B7FB2EA1
:1004EA000D0A00BBF1C8A1C5E4D6C32E0D0A00BB94
:1004FA00F1C8A1BDD3BFDA2E0D0A00CDACB2BDD66C
:10050A00A12E0D0A00B4EDCEF3A3BACEB4B6A8D28A
:10051A00E5B5C4B1EAD7BCCAE4C8EBC7EBC7F32E4A
:10052A000D0A00555342C0E0CAE4C8EBC7EBC7F353
:10053A003A200D0A00555342B3A7C9CCCAE4C8EB06
:10054A00C7EBC7F33A200D0A00B4EDCEF3A3BACE37
:10055A00B4B6A8D2E5B5C4CAE4C8EBC7EBC7F32E54
:10056A000D0A00555342B1EAD7BCCAE4B3F6C7EB49
:10057A00C7F33A2000C7E5B3CCD8D0D42E0D0A0071
:10058A00C9E8D6C3CCD8D0D42E0D0A00C9E8D6C340
:10059A00B5D8D6B72E0D0A00C9E8D6C3C3E8CAF63D
:1005AA00B7FB2E0D0A00C9E8D6C3C5E4D6C32E0D83
:1005BA000A00C9E8D6C3BDD3BFDA2E0D0A00B4EDCE
:1005CA00CEF3A3BACEB4B6A8D2E5B5C4B1EAD7BCC5
:1005DA00CAE4B3F6C7EBC7F32E0D0A00555342C05F
:1005EA00E0CAE4B3F6C7EBC7F33A200D0A00555345
:1005FA0042B3A7C9CCCAE4B3F6C7EBC7F33A200D96
:10060A000A00B4EDCEF3A3BACEB4B6A8D2E5B5C407
:10061A00CAE4B3F6C7EBC7F32E0D0A00555342B628
:10062A00CBB5E330CAE4C8EBD6D0B6CF2E0D0A005C
:10063A00555342B6CBB5E331CAE4B3F6D6D0B6CFFA
:10064A002E0D0A00555342B6CBB5E331CAE4C8EBC6
:10065A00D6D0B6CF2E0D0A00555342B6CBB5E332EB
:10066A00CAE4B3F6D6D0B6CF2E0D0A00555342B619
:10067A00CBB5E332CAE4C8EBD6D0B6CF2E0D0A000A
:10068A001201100100000010888801000001010217
:02069A0003015A
:100F8200E4FDFCC3ED9FEC9E5015E4FBFA0BBB00A5
:0F0F9200010AEB64E34A70F50DBD00010C80E429
:010FA100222D
:100FC1007BFF7A04796A1210157FF31210807F0675
:0F0FD1001210987F471210987FE87E03020F825C
:100FFD007BFF7A0479791210157FF31210807F161A
:08100D001210987F47021098B1
:0910C4007BFF7A04798402101507
:0D105B007BFF7A047992121015E4F5322221
:100DE900900691E493FDFFD3E5279FE52694004003
:100DF90029AB2EAA2FA9307F01120D60900691E42C
:100E090093FF7E00C3E5279FF527E5269EF526EF8C
:100E19002530F530EE352FF52F22E52745266013CD
:100E2900AD27AB2EAA2FA9307F01120D60E4F5265C
:100E3900F52722E52AB40110AB2EAA2FA930E4FD2B
:090E49007F01120D60E4F52A227C
:10069C007BFF7A0479A0121015E4FF1210AFEF2043
:1006AC00E50302085F7B007A0079357D10E4FF12C8
:1006BC000C2912000E1200037835E6F53108E6F528
:1006CC00257838E6FE18E67C002400F52CEC3EF587
:1006DC002B783AE6FE18E62400F529EC3EF528784E
:1006EC003CE6FE18E62400F524EC3EF523E531202B
:1006FC00E7030207DBC41354031470030207C0148E
:10070C0070030207C9240260030207D27BFF7A043C
:10071C0079B4121015E52524FA601C24FE607124AE
:10072C00FE607624FE607B240C60030207B77BFF1F
:10073C007A0479C602085C7BFF7A0479D212101510
:10074C00E52B14600302086F7BFF7A0479DF12102B
:10075C0015752EFF752F0675308A90068AE493FF67
:10076C007E00D3E5249FE5239E401C8E268F279088
:10077C000691E493FD7C00AE26AF271208D8ED4C11
:10078C00700B752A018006852326852427020DE926
:10079C007BFF7A0479ED02085C7BFF7A0479F9021D
:1007AC00085C7BFF7A05790502085C7BFF7A05798A
:1007BC000F02085C7BFF7A05792D02085C7BFF7ABF
:1007CC0005793F02085C7BFF7A05795302085CE5EA
:1007DC0031C41354031460621460672402706B7B81
:1007EC00FF7A05796D121015E52524FD601C24FE99
:1007FC00602024FE602424FE602824FE602C240A41
:10080C0070307BFF7A05797F80467BFF7A05798A89
:10081C00803E7BFF7A05799680367BFF7A0579A23C
:10082C00802E7BFF7A0579B080267BFF7A0579BC18
:10083C00801E7BFF7A0579C880167BFF7A0579E6E6
:10084C00800E7BFF7A0579F880067BFF7A06790C9F
:10085C000210157B007A0079357D10E4FF120C290B
:04086C001200032251
:101039007BFF7A0679261210157F011210AF020D77
:01104900E9BD
:0910CD007BFF7A06793A02101546
:0910D6007BFF7A06794E02101529
:0910DF007BFF7A0679620210150C
:0910E8007BFF7A067976021015EF
:100F3A00B6C1B6CBB5E300BBBAB3E5C7F800D7D69E
:100F4A00BDDA3A0D0A000D0A00D0B4B6CBB5E300FB
:080F5A00D7D6BDDA2E0D0A0006
:0C108000D2B5C2B68F80D2B67580FF22B8
:03108C00121080BF
:08108F00C2B5C2B7AF80D2B7B1
:011097002236
:10104A007FFD12108CAD077C0012108FEFFEAF05EA
:01105A002273
:0C109800C2B5C2B68F80D2B67580FF22B0
:0300080002108063
:080C29008F0C8B0D8A0E890F60
:100C31001200087FF012108C12108F8F11E511D362
:100C41009D40028D117BFF7A0F793A121015E50C48
:100C5100C313FFE4FCFDFE120CCD7BFF7A0F79413B
:100C6100121015AF11E4FCFDFE120CCD7BFF7A0FC3
:100C71007948121015E4F510E510C39511503BC2E7
:100C8100B7AB0DAA0EA90F851082758300E58012FE
:100C910008B6D2B7851082758300120889FF120F3A
:100CA100037F201210BAE51004540F70097BFF7AFC
:100CB1000F7950121015051080BEE511540F60090F
:0B0CC1007BFF7A0F7950121015AF1165
:010CCC002205
:050003007FF2021080F5
:10000E007F011200087FF1121080E4FF1200087FBA
:04001E00F10210805B
:0B10AF00EF2440FF12108012108F226F
:0510F1007FFA021080EF
:080D60008D0C8B0D8A0E890F2A
:100D68001200087FF0121080E4FF121098AF0C12E6
:100D780010987BFF7A0F7953121015AF0CE4FCFD25
:100D8800FE120CCD7BFF7A0F795A121015E4F5107C
:100D9800E510C3950C5032C2B6AB0DAA0EA90F854B
:100DA8001082758300120889FFF580D2B6120F03EE
:100DB8007F201210BAE51004540F70097BFF7A0FD8
:100DC8007950121015051080C7E50C540F60097B87
:100DD800FF7A0F79501210157580FF1210F1AF0CC1
:010DE80022E8
:10087000BB010689828A83E0225002E722BBFE0286
:09088000E32289828A83E49322B9
:10088900BB010CE58229F582E5833AF583E0225024
:1008990006E92582F8E622BBFE06E92582F8E2226E
:0D08A900E58229F582E5833AF583E4932288
:1008B600F8BB010DE58229F582E5833AF583E8F078
:1008C600225006E92582C8F622BBFE05E92582C824
:0208D600F2220C
:1008D800BC000BBE0029EF8DF084FFADF022E4CC04
:1008E800F875F008EF2FFFEE33FEEC33FCEE9DECCD
:1008F800984005FCEE9DFE0FD5F0E9E4CEFD22ED13
:10090800F8F5F0EE8420D21CFEADF075F008EF2F5C
:10091800FFED33FD4007985006D5F0F222C398FD4D
:050928000FD5F0EA22EA
:10092D0075F008758200EF2FFFEE33FECD33CDCC81
:10093D0033CCC58233C5829BED9AEC99E582984004
:10094D000CF582EE9BFEED9AFDEC99FC0FD5F0D6E1
:10095D00E4CEFBE4CDFAE4CCF9A88222B800C1B90B
:10096D000059BA002DEC8BF084CFCECDFCE5F0CB49
:10097D00F97818EF2FFFEE33FEED33FDEC33FCEB82
:10098D0033FB10D703994004EB99FB0FD8E5E4F93D
:10099D00FA227818EF2FFFEE33FEED33FDEC33FC2A
:1009AD00C933C910D7059BE99A4007EC9BFCE99A1E
:1009BD00F90FD8E0E4C9FAE4CCFB2275F010EF2F63
:1009CD00FFEE33FEED33FDCC33CCC833C810D70763
:1009DD009BEC9AE899400AED9BFDEC9AFCE899F89E
:0E09ED000FD5F0DAE4CDFBE4CCFAE4C8F92231
:00000001FF
