:020000040800F2
:10000000780900204D0200085B0200085D0200082C
:100010005F0200086102000863020008000000009F
:100020000000000000000000000000006502000861
:100030006702000800000000690200086B02000867
:100040006D0200086D0200086D0200086D020008D4
:100050006D0200086D0200086D0200086D020008C4
:100060006D0200086D0200086D0200086D020008B4
:100070006D0200086D0200086D0200086D020008A4
:100080006D0200086D0200086D0200086D02000894
:100090006D0200086D0200086D0200086D02000884
:1000A0006D0200086D0200086D0200086D02000874
:1000B0006D0200086D0200086D0200086D02000864
:1000C0006D0200086D0200086D0200086D02000854
:1000D0006D020008010300086D0200086D020008AF
:1000E0006D0200086D0200086D0200086D02000834
:1000F0006D0200086D0200086D0200086D02000824
:100100006D0200086D0200086D0200086D02000813
:100110006D0200086D0200086D0200086D02000803
:100120006D0200086D0200086D0200086D020008F3
:100130006D0200086D0200086D0200086D020008E3
:100140006D0200086D0200086D0200086D020008D3
:100150006D0200086D0200086D0200086D020008C3
:100160006D0200086D0200086D0200086D020008B3
:100170006D0200086D0200086D020008000000001A
:100180006D0200086D0200086D0200086D02000893
:100190006D0200086D0200086D0200086D02000883
:1001A0006D0200086D0200086D02000800F002F800
:1001B00000F03CF80AA090E8000C82448344AAF1C5
:1001C0000107DA4501D100F031F8AFF2090EBAE8C3
:1001D0000F0013F0010F18BFFB1A43F0010318477B
:1001E0001C6A00003C6A0000103A24BF78C878C13D
:1001F000FAD8520724BF30C830C144BF04680C602D
:10020000704700000023002400250026103A28BF74
:1002100078C1FBD8520728BF30C148BF0B60704778
:100220001FB502F045F91FBD10B510BD00F035F83F
:100230001146FFF7F5FF01F081FF00F053F803B41A
:10024000FFF7F2FF03BC00F09BF800000B480168C9
:1002500041F4700101600A480047FEE7FEE7FEE74F
:10026000FEE7FEE7FEE7FEE7FEE7FEE7FEE700004B
:1002700004480549034A054B7047000088ED00E03B
:10028000AD010008780100207809002078010020E5
:1002900070477047704770477047754600F02CF8FC
:1002A000AE4605006946534620F00700854618B063
:1002B00020B5FFF7DDFFBDE820404FF000064FF00E
:1002C00000074FF000084FF0000B21F00701AC468B
:1002D000ACE8C009ACE8C009ACE8C009ACE8C009AA
:1002E0008D46704710B50446AFF300802046BDE848
:1002F0001040FFF7A4BF000000487047180100201D
:100300001C49096801F0200109B31A494968C8B2BB
:100310001949098801F40041C9B91749098801F44C
:10032000804161B10A2803D00021134A118020E0E6
:100330001149098841F400410F4A118019E00D2844
:1003400006D10D49098841F480410B4A118010E023
:1003500009490988C1F30D01084A50540649098822
:10036000491C054A118011460988C72901DD002171
:10037000118070470010014008000020200000207C
:1003800000BF70470146002021B1012913D0022986
:1003900035D122E01C4A126802F0010210431A4AC9
:1003A000126802F002021043174A126802F08062DB
:1003B00040EA126025E0144A1268C2F3002210439A
:1003C000114A126802F4007240EA12200E4A1268C2
:1003D00002F0006240EA526013E00B4A1268C2F376
:1003E00000421043084A126802F4003240EA124008
:1003F000054A126802F0805240EA926001E005204E
:1004000000BF00BF70470000086400402DE9FC47B2
:1004100005460E4617469846DDF828900024032D21
:1004200009DC0F2E07DC072F05DCB8F5806F02DA38
:10043000B9F1010F03DD4FF0FF30BDE8FC876D48D7
:10044000006840F001006B49086001200221002390
:100450000A46CDE900104FF4C051674800F07AFA1F
:1004600009220B21644800F0E4FA09220C216248B9
:1004700000F0DFFA5F48006840F000705D490860F6
:1004800000205E4908600846006840F001000860EE
:1004900006E0601C84B2642C02DD6FF00100CCE742
:1004A0005648006800F001000028F2D05348006868
:1004B00020F08000514908600846006820F04000A4
:1004C00008600846006820F02000086008460068C0
:1004D00040F0100008600846006820F0080008603E
:1004E0000846006820F004000860002043491C31E1
:1004F00008600846006809F0010140EA81703F4940
:100500001C3108600846006805F0030140EA0160FC
:100510003A491C3108600846006807F0070140EAC4
:10052000015036491C3108600846006806F00F018A
:1005300040EA014031491C31086008460068C8F3B0
:10054000090108432D491C3108602C48006820F03F
:1005500001002A49086008E0601C84B24FF6F07080
:10056000844202DD6FF0020067E72448006800F073
:1005700001000028F0D12248006840F00100204925
:1005800008601F481C30006820F001001C491C3125
:1005900008601B480C30006840F0010018490C311D
:1005A00008601748001D006820F001001449091D6B
:1005B000086013481430006820F00100104914311D
:1005C000086000200E494031086000210C4844308A
:1005D00001600B481C30006840F0010008491C31E4
:1005E00008600748006820F0010005490860002005
:1005F00023E7000040380240000002400064004051
:1006000000660040014621B90748006800F0030079
:100610007047012905D10448001D006800F003005F
:10062000F6E70020F4E700000C64004010B586B047
:1006300004460020FFF7E6FF10B9002006B010BD09
:1006400002A803AB04AA05A9CDE90004002000F02C
:100650000FF80598122805D19DF8100010B99DF8E3
:100660000C0008B1002002909DF80800E6E70000A9
:10067000F0B5DDE90554314E06EB0016366806F09C
:1006800004061670167836B92C4E06EB001636683E
:10069000760D0E6005E0294E06EB00163668F6086A
:1006A0000E60264E06EB00163668C6F340061E7036
:1006B000224E06EB0016766806F00F062E701F4ECF
:1006C00006EB0016B66826701C4E06EB0016B668E0
:1006D000360A6670194E06EB0016B668360CA67020
:1006E000164E06EB0016B668360EE670134E06EB95
:1006F0000016F6682671114E06EB0016F668360AEB
:1007000066710E4E06EB0016F668360CA6710B4E9F
:1007100006EB0016F668360EE67130B9084E3668FC
:1007200046F02006064F3E6007E0054E361D36684F
:1007300046F02006024F3F1D3E60F0BDB065004010
:100740000C640040F8B505460E46334600221146BB
:100750001220009500F016F8C7B201E0601C84B2C8
:100760003846FFF70FFE072803D040F6FF7084429B
:10077000F4DB40F6FF70844202DB4FF0FF30F8BD3F
:100780000020FCE7F0B505460E46059C00214148D7
:10079000006800F0806000B110E03E48006800F0A2
:1007A000006008B1012109E03A48006800F080507B
:1007B00008B1022102E04FF0FF30F0BD00273648BB
:1007C00000EB011007601EB9C5F30A056D0502E0D4
:1007D00025F06045ED00304800EB0110006828432B
:1007E0002D4F07EB011738602B4800EB0110006814
:1007F00006F0010740EA8707274800EB0110076071
:10080000254800EB0110006802F0010740EA4707A5
:10081000214800EB011007601F4800EB0110406801
:1008200020F00F071C4800EB011047601A4800EB4E
:100830000110406803F00F073843174F07EB01170B
:100840007860E0780006A77840EA0740677840EAD9
:10085000072027783843104F07EB0117B860E0797D
:100860000006A77940EA0740677940EA0720277920
:100870003843094F07EB0117F860074800EB0110F8
:10088000006840F00107044800EB011007600846CB
:1008900093E7000008640040806500404FF0E021CD
:1008A000096921F004014FF0E022116100EB8002A0
:1008B0005100CA1701EB5272C2F3C702044B1A70FF
:1008C0004FF47A714143C1F3CF01024A118070475E
:1008D000000000200200002070B504464FF40770AD
:1008E00094FBF0F0C6B24FF4077094FBF0F100FBFC
:1008F000114085B205E04FF4077001F001FC701E55
:10090000C6B2002EF7D115B1284601F0F9FB70BD33
:1009100001460F4A12784A430A23B2FBF3F24FF022
:10092000E0235A6100229A6101221A6100BF4FF050
:10093000E022106900F001021AB100F48032002AAE
:10094000F5D000224FF0E0231A619A617047000051
:10095000000000202DE9F0470C46DDE90867002182
:1009600000258C4600BF60E04FF0010808FA01F551
:1009700004EA050CAC4557D1D0F800804FEA410A93
:100980004FF0030909FA0AF928EA0908C0F80080BB
:10099000D0F800804FEA410902FA09F948EA09084B
:1009A000C0F80080012A01D0022A27D1D0F808809F
:1009B0004FEA410A4FF0030909FA0AF928EA09083F
:1009C000C0F80880D0F808804FEA410906FA09F912
:1009D00048EA0908C0F80880D0F804904FF00108F0
:1009E00008FA01F829EA0809C0F80490D0F8048050
:1009F00003FA01F948EA0908C0F80480D0F80C802D
:100A00004FEA410A4FF0030909FA0AF928EA0908EE
:100A1000C0F80C80D0F80C804FEA410907FA09F9B8
:100A200048EA0908C0F80C80491C10299CD3BDE88D
:100A3000F08730B5CC1000F1200353F824304C0778
:100A4000E50E0F24AC40A343CD1000F1200444F880
:100A50002530CC1000F1200353F824304C07E40E6D
:100A600002FA04F42343CD1000F1200444F82530A9
:100A700030BD00001CB51748006840F00100154962
:100A800008600846006840F00400086008460068F6
:100A900040F0800008600220FF210B460022CDE9D3
:100AA000001001210C48FFF755FF0120FF210B46E4
:100AB0000022CDE9001041030848FFF74BFF012059
:100AC000FF210B460022CDE900100C210448FFF75E
:100AD00041FF1CBD303802400000024000080240C7
:100AE000001C024010B5044614B1012021490870D1
:100AF0002048007848B32048006850B11E48001FC5
:100B0000006830B11D48006818B11D480068012810
:100B10001BD10A20FFF7E0FE002016490870164896
:100B2000006808B9012010BD1348001F006808B90B
:100B30000220F8E71148006808B90320F3E71048DD
:100B40000068012814D10420EDE70B480068012853
:100B50000ED10948001F0068012809D10748006824
:100B6000012805D10648006810B901200149087024
:100B70000020D8E70A0000200C82434234024142A0
:100B80000002404210B504460348808810B1204658
:100B900000F0E2F910BD00000801002070B5044625
:100BA0000D46164609480088A04203DD07484088E4
:100BB000A84200DC70BD0548808820B13246294635
:100BC000204600F0DBF900BFF4E700000801002038
:100BD0002DE9F84304460D4616461F46DDF82080F1
:100BE0000648808838B13B46324629462046CDF833
:100BF000008000F0E7F9BDE8F8830000080100205C
:100C000010B500F099FC0B4988800846808810B127
:100C100000F09AFA02E04FF0FF3010BD002000F023
:100C200019F80120044908604FF6FF70FFF7AAFF8A
:100C30000020F2E7080100209482404210B50246ED
:100C4000012000E050430B1EA1F10104E1B2F9D1F3
:100C500010BD000010B5044607488471808848B173
:100C6000204600F0BFFC0548C08A034908800348BD
:100C7000008B488010BD000008010020E800002023
:100C80002DE9F84F80460F4616461C46BB462046C7
:100C9000E31704EB5373DB1021464FEAE47C04EBCB
:100CA0005C7C4FEAEC0CA4EBCC0CBCF1000F02D046
:100CB0004FF0010C01E04FF0000C6344224604EBBE
:100CC000D27C4FEA6C0C03FB0CF3DBB20093A6F171
:100CD0002000C6B200255EE00C2C07D106EB4600D2
:100CE0002F4901EB800010F805A01BE0102C05D166
:100CF0002C4800EB061010F805A013E0182C07D1C3
:100D000006EBC600284901EB800010F805A009E0B9
:100D1000202C05D1254800EBC61010F805A001E0F5
:100D2000BDE8F88F4FF000092FE00AF0800030B1E5
:100D30001F48394602684046FFF730FF07E00A982F
:100D400028B91C48394602684046FFF727FF4FEA9A
:100D50004A604FEA106A781C87B217484088B84248
:100D600000DCDDE7A7EB0B00A0420AD15F4608F1EB
:100D700001001FFA80F810480088404500DCCFE7EA
:100D800006E009F1010000F0FF09B9F1080FCCDB22
:100D900000BF681CC5B2009885429DDB00BFBFE75D
:100DA000BA2400082E2900081E2F00087A3C0008EB
:100DB0001400002018000020080100202DE9FF4F3A
:100DC00083B0064692461F46DDE910480020029097
:100DD00000254DE0781B401EC1B20A20FFF72EFF10
:100DE000BAFBF0F00A21B0FBF1F201FB1209029804
:100DF00050BB781EA84227DDB9F1000F22D108F0C0
:100E0000800078B108F00100A34604EBDB714910C3
:100E100001FB0561009088B2234630220499FFF758
:100E20002FFF0EE008F00100A34604EBDB71491030
:100E300001FB0561009088B2234620220499FFF748
:100E40001FFF13E00120029008F00100A34604EB0D
:100E5000DB71491001FB0561009088B209F1300196
:100E6000CAB223460499FFF70BFF00BF681CC5B246
:100E7000BD42AFDB07B0BDE8F08F2DE9F84F044667
:100E80000D4690469946DDE90A6704F0FF0A08EB33
:100E900004001FFA80F809EB05001FFA80F916E03C
:100EA000444502DB5446A81985B24D4500DB14E0E9
:100EB000002000903A78334629462046FFF7E0FEAE
:100EC000304606EBD07104EB61018CB27F1C3878A0
:100ED0007E2802DC38782028E2DA00BFBDE8F88FEF
:100EE0001CB50B48006840F0020009490860012069
:100EF000032100230246CDE900100648FFF72AFD32
:100F00000120054908600549C1F880021CBD0000A8
:100F10003038024000040240848240420080404257
:100F200018B90121044A116005E0012803D101210B
:100F3000014A121F116070478482404218B9002193
:100F4000044A116005E0012803D10021014A121F63
:100F5000116070478482404218B5044606480094E8
:100F6000008B401E83B20448C08A401E82B200211A
:100F7000084600F027F818BDE800002070B50023EF
:100F80000E4C647D44B10D4CE4690C4D2D6805FB9D
:100F9000010504FB05F30AE0084C25686468241A7F
:100FA000641E05FB0414054DED6904FB05F3034DB8
:100FB0002D7D034E56F82550EA5270BDE800002002
:100FC0000C0000202DE9F04F04460D4616464FF068
:100FD000000EF446DFF8349199F81590B9F1000F3E
:100FE00004D02046294632461F4615E02846DFF841
:100FF0001C91B9F80490A9EB0609A9F101091FFA9F
:1010000089F11A46DFF80491B9F80490A9EB0409B4
:10101000A9F101091FFA89F7DFF8F090B9F80090FB
:10102000A2EB000A0AF1010AA9EB0A091FFA89FEDC
:10103000DFF8D89099F81490DFF8D4A05AF82990E6
:10104000DFF8C8A0DAF81CA0DFF8C0B0DBF800B009
:101050000BFB010B0AFB0B98DFF8B890D9F8009056
:1010600049F40009DFF8ACA0CAF80090DFF8A890B6
:10107000D9F8009029F00109DFF89CA0CAF8009087
:10108000D146D9F8009049F44039CAF800904FF0A1
:101090000209CAF83490D146C9F840E0C9F83C804A
:1010A000A7EB010909F10109A2EB000A0AF1010A03
:1010B00049EA0A49DFF860A0CAF84490DDF82490B4
:1010C000CAF83890D146D9F8009049F00109CAF819
:1010D000009005E00CF1010CBCF5001F00D308E006
:1010E000DFF83490D9F8049009F00209B9F1000F43
:1010F000F0D000BFDFF82090D9F8089049F002093D
:10110000DFF814A0CAF80890BDE8F08FE8000020CE
:101110000C0000203038024000B00240014602209E
:1011200031B1012906D0052906D0062907D104E0EE
:10113000042006E0032004E000BF012001E00220BB
:1011400000BF00BF704700007FB50024002500F0FD
:10115000F3F90446D448006840F4F170D2490860BD
:10116000D1481430006840F08060CF4914310860E5
:101170000120022100230246CDE900102021CB48A6
:10118000FFF7E8FB0120032100230222CDE9001034
:101190008102C748FFF7DEFB012003210023022262
:1011A000CDE900104FF40C61C248FFF7D3FB0120DA
:1011B000032100230222CDE900104FF47E41BE48F6
:1011C000FFF7C8FB0120032100230222CDE9001014
:1011D00040F2F761B948FFF7BDFB0E220A21B4487F
:1011E000FFF727FC0E220621B248FFF722FC0E2251
:1011F0000721B048FFF71DFC0E220B21AD48FFF779
:1012000018FC0E220921AC48FFF713FC0E220A211C
:10121000A948FFF70EFC0E220B21A748FFF709FC97
:101220000E220C21A448FFF704FC0E220D21A24837
:10123000FFF7FFFB0E2211469F48FFF7FAFB0E2235
:101240000F219D48FFF7F5FB0E2200219B48FFF779
:10125000F0FB0E2201219948FFF7EBFB0E22022141
:101260009648FFF7E6FB0E2204219448FFF7E1FBC6
:101270000E2205219148FFF7DCFB0E2206218F4844
:10128000FFF7D7FB0E2207218C48FFF7D2FB0E2277
:1012900009218A48FFF7CDFB0E220A218748FFF774
:1012A000C8FB44F24230844218D14FF4F0708449B4
:1012B00008604FF488704860012008814881282028
:1012C00088810820C88105200882082048820222DF
:1012D00004214FF4907000F073FA55E047F2840057
:1012E000844218D14FF44870754908604FF4F0708B
:1012F00048600120088148812E2088811720C881FC
:10130000D220088216204882012203214FF4C670A1
:1013100000F056FA38E047F21600844219D14FF433
:101320008060674908604FF4167048601420088197
:10133000032048818C2088811420C881A020088245
:101340000C204882012202214FF4B47000F038FAD8
:101350001AE047F21800844207D14FF4A0605849C0
:1013600008604FF4487048600EE048F2160084426E
:1013700006D14011524908604FF41670486003E0EE
:101380004FF0FF3004B070BD4E48006820F0704050
:101390004C4908604A484089401E49490989491E0C
:1013A00040EA0145474810380560454840894449AE
:1013B000C9890844401E42490989414A9289114419
:1013C000491E40EA01453F480C3805603C484089C9
:1013D0003B49C98908443A4949680844401E38498C
:1013E0000989374A92891144354A12881144491EA5
:1013F00040EA0145334808380560314840893049A2
:10140000C98908442E49496808442D49498A084435
:10141000401E2B4909892A4A92891144284A128878
:101420001144274A128A1144491E40EA01452548C1
:10143000001F05600020234914310860012000F0DE
:101440001DFA21482149086002201D49C861072072
:10145000062100220092CDE9012103901B48FF23C1
:1014600002220168002000F0D3F81548808880B27D
:1014700000901348008883B200221146104600F005
:1014800015F90F480088124908800D488088488067
:10149000002000F0A1F801200E490860801EFFF72F
:1014A0005BFD00206EE7000030380240000402407F
:1014B0000014024000180240001C024000200240BC
:1014C000E800002018680140000000C00C00002067
:1014D0000801002094824042012910D130B9154AF8
:1014E000126842F00102134B1A6019E0114A80326F
:1014F000126842F001020F4B80331A6010E079B994
:1015000030B90C4A126822F001020A4B1A6007E057
:10151000084A8032126822F00102064B80331A60BA
:10152000044A603A126842F00102024B603B1A60C2
:1015300070470000846801407CB5002400252048E5
:10154000006840F4A0701E4908600120FF210B468E
:101550000022CDE9001040211A48FFF7FBF90120D5
:10156000FF210B460022CDE9001084211648FFF729
:10157000F1F91648006880001549D1F8081240EAD0
:101580004100144909680843C4B2052C13D2DFE8AE
:1015900004F00306090C0F0044F242350DE047F257
:1015A00084050AE047F2160507E047F2180504E053
:1015B00048F2160501E0002500BF00BF28467CBDAB
:1015C0003038024000180240002002401C02444211
:1015D0000000444218024342014908757047000068
:1015E000E80000200949487530B98988074AD18246
:1015F00011460988118308E0012806D103490988AA
:10160000024AD1821146898811837047E800002080
:101610002DE9F0410646DDE9067CDDE90845072CA9
:1016200001DC072D03DD4FF0FF30BDE8F081E6B9A6
:101630001D48016002F00700DFF86C80A8F118086F
:10164000C8F8000008F104000360604667F31F60FB
:10165000DFF85480A8F11008C8F8000045EA04201B
:1016600008F10408C8F800001CE00F488030016051
:1016700002F00700DFF8308008F16808C8F80000C1
:1016800008F104000360604667F31F60DFF818800C
:1016900008F17008C8F8000045EA042008F10408C1
:1016A000C8F800000020C0E7AC6801402DE9F04711
:1016B00081460E4617461D46DDF820800024A246CE
:1016C000B9F1000F39D170193B490968C1F30B41D9
:1016D0000844040438480068C0F30B403044401C00
:1016E000204335497C31086007EB0800324909681E
:1016F000C1F30A01084404042F480068C0F30A003B
:101700003844401C20432C49803108602A488830E6
:10171000006800F0070A5046FFF700FD044605FB8D
:1017200004F0C01C05FB04F140EA01402249A43149
:101730000860081DC0F8008037E070191E4909686C
:10174000C1F30B41084404041B480068C0F30B407C
:101750003044401C20431849FC31086007EB080066
:1017600015490968C1F30A010844040412480068D5
:10177000C0F30A003844401C2043104908600F4859
:101780000830006800F0070A5046FFF7C7FC04461F
:1017900005FB04F0C01C05FB04F140EA01400749C9
:1017A00024310860081DC0F8008001214846FFF779
:1017B00093FEBDE8F08700000C6801400C69014011
:1017C00070B503460C4600250021022C08D3072CD7
:1017D00006D8322B04D3B3F5D87F01D8032A02D917
:1017E0004FF0FF3070BD2348006820F08050214E3C
:1017F000306001E0481C81B21E48006800F00050D3
:1018000018B141F6FF708142F4DB41F6FF7081426E
:1018100002D14FF0FF352BE0164888300068164E95
:10182000304040EA047040EA8310124E883630603F
:10183000301D006820F4403040EA0240361D306020
:101840000C48006840F080500A4E306001E0481CAF
:1018500081B20848006800F0005018B941F6FF70E6
:101860008142F4DB41F6FF70814201D14FF0FF3538
:101870002846B7E7003802403F80FF8F012806D195
:101880000749096841F00101054A116006E028B9DD
:101890000349096821F00101014A11607047000005
:1018A000186801402DE9F0410746884614461D4658
:1018B000284600F033F8C5F1040007FA00F60F20BF
:1018C000284100EA0800064306F00F06E21704EB81
:1018D000D2625211920002F1E022D2F80021214698
:1018E000E31704EBD3635B11A4EB431C012303FA5E
:1018F0000CF31A432046E31704EBD3635B119B0000
:1019000003F1E023C3F800210348005D40EA06101C
:1019100001490855BDE8F08100E400E001460723D5
:1019200023EA01021202054B18684FF6FF03184024
:10193000034B18431043014B186070470CED00E057
:101940000000FA054A0A52020243014B1A6070472E
:1019500008ED00E01CB500242848006840F0200095
:101960002649086025481430006840F48010234957
:10197000143108600120032100230222CDE9001068
:101980004FF460711E48FEF7E5FF052207211C4851
:10199000FFF74FF8052208211948FFF74AF80522FA
:1019A00009211748FFF745F814480C38006840F43F
:1019B000801012490C3908600846006820F4801035
:1019C000086000BF00BF44F4007444F4807400BF9A
:1019D00044F0400444F0380444F0040444F00204A9
:1019E00044F0010407480460C06920F40060054920
:1019F000C861FF2000F008F81CBD0000303802402C
:101A00000014024000500140014600BF09488068B0
:101A100000F002000028F9D00648C16000BF054868
:101A2000806800F001000028F9D00248C068C0B208
:101A3000704700000050014000F007000A490968A3
:101A400021F04001084A11601146096821F038016F
:101A500011601146096841EAC00111601146096828
:101A600041F0400111607047005001402DE9F04104
:101A700004460D4616461F461448006840F0010013
:101A80001249086000201149083108600F480068B9
:101A90000F4908400D4908600E48091D0860081FDD
:101AA000006820F48020091F0860002007490C31DD
:101AB00008603B4632462946204600F00DF80021DA
:101AC0000846FFF73FFFBDE8F08100000038024004
:101AD000FFFFF6FE10300024F0B504460D4600214D
:101AE00000203D4E366846F480363B4F3E6001E0B4
:101AF0004E1CB1B2384E366806F400361EB941F6B7
:101B0000FF76B142F4DB41F6FF76B14201D101200C
:101B100060E0314E4036366846F080562E4F4037F2
:101B20003E602E4E366846F440462C4F3E602A4EAC
:101B30000836366846F41446274F08373E60264E6E
:101B4000366826F08076244F3E6045EA84160127E9
:101B5000C7EB520746EA074646EA036646F48006A4
:101B60001D4F3F1D3E603E1F366846F080763F1F8A
:101B70003E6000BF184E366806F00076002EF9D0A1
:101B8000174E366846F48076154F3E603E463668FE
:101B900046F400763E603E46366846F480663E6017
:101BA0003E46366846F005063E600B4E08363668FF
:101BB00026F00306084F08373E603E46366846F07A
:101BC00002063E6000BF044E0836366806F00C067A
:101BD000082EF8D1F0BD000000380240007000402F
:101BE000003C0240F0B52DED028B83B005460E4659
:101BF000384905FB01F000EE100AF8EE400A30010A
:101C000000EE100AB8EE400A80EE801AB0EE418A6B
:101C1000BCEEC80A10EE100A84B200EE104AB8EE0C
:101C2000400A38EE400AF3EE000A20EE200ABCEE2D
:101C3000C00A10EE107A4FF6FF7000EA0414E019A3
:101C400084B22548006840F001002349086022481A
:101C50001430006840F010001F4914310860012062
:101C6000022100230A46CDE900104FF4C0611B4851
:101C7000FEF770FE072209211848FEF7DAFE072258
:101C80000A211648FEF7D5FE15488460C06820F486
:101C900000401349C8600846C06840F00800C860AA
:101CA0000846C06840F00400C8600846C06840F0BC
:101CB0002000C8600223252203210846FFF7F2FD19
:101CC0000748C06840F400500549C86003B0BDEC47
:101CD000028BF0BD40420F0030380240000002404D
:101CE000001001401CB500241C48006840F0200092
:101CF0001A4908600120032100230246CDE90010A3
:101D000040211748FEF726FE00BF01201549086054
:101D100000BFFFF71FFE0020FFF78EFE00F026F841
:101D200011490880084600884EF61871884213D180
:101D3000032000F03FF8044604F0010060B900BF42
:101D400000200849086000BFB720FFF75DFE00BF14
:101D500001200449086000BF1CBD0000303802406B
:101D600000140240988242421C00002010B500245A
:101D700000BF00200E49086000BF9020FFF744FE1E
:101D80000020FFF741FE0020FFF73EFE0020FFF796
:101D90003BFEFF20FFF738FE0402FF20FFF734FE72
:101DA000044300BF01200249086000BF204610BD67
:101DB0009882424270B5044600250026012C04D0CA
:101DC000022C04D0032C06D103E0052605E03526BD
:101DD00003E0152601E0052600BF00BF00BF00207C
:101DE0000849086000BF3046FFF70EFEFF20FFF7EE
:101DF0000BFE054600BF01200249086000BF2846CF
:101E000070BD0000988242427CB500240026002567
:101E10009B48006840F001009949086098480838DC
:101E2000006840F07C0096490839086001200321D1
:101E300000230222CDE900100D219248FEF78AFD11
:101E40000120032100230222CDE900104CF203718E
:101E50008D48FEF77FFD0120032100230222CDE9FA
:101E600000104FF683718948FEF774FD01200321AD
:101E700000230222CDE900104FF63F018448FEF70F
:101E800069FD0120032100230222CDE9001048F260
:101E900037118048FEF75EFD0C2200217948FEF7DD
:101EA000C8FD0C2202217748FEF7C3FD0C22032156
:101EB0007448FEF7BEFD0C2200217348FEF7B9FD01
:101EC0000C2201217048FEF7B4FD0C2208216E4857
:101ED000FEF7AFFD0C2209216B48FEF7AAFD0C228C
:101EE0000A216948FEF7A5FD0C220E216648FEF77F
:101EF000A0FD0C220F216448FEF79BFD0C2200215F
:101F00006248FEF796FD0C2201216048FEF791FD24
:101F10000C2207215D48FEF78CFD0C2208215B484E
:101F2000FEF787FD0C2209215848FEF782FD0C229E
:101F30000A215648FEF77DFD0C220B215348FEF77F
:101F400078FD0C2211465148FEF773FD0C220D213D
:101F50004E48FEF76EFD0C220E214C48FEF769FD3F
:101F60000C220F214948FEF764FD0C22002148484D
:101F7000FEF75FFD0C2201214548FEF75AFD0C22B9
:101F800002214348FEF755FD0C2203214048FEF78D
:101F900050FD0C2204213E48FEF74BFD0C2205218A
:101FA0003B48FEF746FD0C220B213948FEF741FD68
:101FB0000C2211463648FEF73CFD0C220D21344818
:101FC000FEF737FD0C220E213148FEF732FD0C22C0
:101FD0000F212F48FEF72DFD0C2200212D48FEF782
:101FE00028FD0C2201212B48FEF723FD0C220221A3
:101FF0002848FEF71EFD0C2204212648FEF719FD95
:102000000C2205212348FEF714FD0C22082121484B
:10201000FEF70FFD0C220F211E48FEF70AFD41F6C8
:10202000D91006431C4806601C4805434FF0204069
:10203000C0F8485100231A460121184600F030F834
:102040004FF4FA70FEF764FC00231A46022118468A
:1020500000F026F8002308220321184600F020F89B
:1020600040F233200443234600220421104600F0AE
:1020700017F840F256500849143108607CBD000042
:102080003838024000080240000C024000100240B4
:102090000014024000180240400100A061551101E7
:1020A000F0B504460D4600210026012C03DC072D67
:1020B00001DC0F2A02DD4FF0FF30F0BD05F0070014
:1020C0000143C4F104070120B840014341EA421131
:1020D00041EA43210948016007E03046761CB0F52B
:1020E000001F02D34FF0FF30E7E7044808300068D4
:1020F00000F020000028F0D100BFDEE7500100A072
:1021000001460D4A12884A434FF0E0235A610022EB
:102110009A6101221A6100BF4FF0E022106900F0BD
:1021200001021AB100F48032002AF5D000224FF0EB
:10213000E0231A619A617047020000201FB5002455
:10214000A046A1460020029003900125002600270A
:102150000823022219214FF4B470FFF787FCB42042
:10216000FEF79CFB4FF4E1315A20FFF73BFDFEF7F1
:10217000B7FEFEF77FFCFFF747FEFEF741FDFFF7D6
:10218000B1FD012005230422082100900020FEF764
:102190003DF96420FEF7A0FB0020FEF7CFFE0120F2
:1021A000FEF7BEFE4FF478409749086097A01021D3
:1021B0000B46F022CDE9001028211E20FEF75DFE1F
:1021C00096A010210B46F022CDE900103C211E20E4
:1021D000FEF753FE94A010210B46F022CDE900102B
:1021E00050211E20FEF749FE93A010210B46F0223D
:1021F000CDE9001064211E20FEF73FFE91A01021C2
:102200000B46F022CDE9001078211E20FEF735FEA6
:1022100090A010210B46F022CDE900108C211E2049
:10222000FEF72BFE1F20784908608FA010210B4677
:10223000F022CDE90010A0211E20FEF71EFE8CA08A
:1022400010210B46F022CDE90010B4211E20FEF72C
:1022500014FE8AA010210B46F022CDE90010114691
:102260001E20FEF70AFECDE00020FEF73BFC814673
:10227000B9F1020F28D10DB9012000E00020054678
:1022800005230422082100200095FEF7BFF84FF433
:1022900078405D49086055B97CA010210B46F022BA
:1022A000CDE9001078211E20FEF7E7FD09E065A0CA
:1022B00010210B46F022CDE9001078211E20FEF7F8
:1022C000DCFD1F2050490860B9F1010F43D1002403
:1022D00023E0301902A90855042C0DDA80201021C2
:1022E000CDE9001002A90A5D1E2101EB4410032371
:1022F000C821FEF763FD0EE080201021CDE900101B
:1023000002A90A5D211F1E2303EB411188B203239A
:10231000DC21FEF753FD601CC4B2082CD9DB082178
:1023200002A8FEF70FFA0746781C50B95BA01021EF
:102330000B46F022CDE90010B4216E20FEF79DFD82
:1023400009E058A010210B46F022CDE90010B4217D
:102350006E20FEF792FD02A8FEF768F907468FB3DC
:102360004FF6FF704FF49B73A0224FF482710090E0
:102370001E20FEF72DFC002422E0042C0EDA802023
:102380001021CDE9001002A90A5D1E2101EB4410C5
:1023900003234FF48271FEF711FD0FE0802010211E
:1023A000CDE9001002A90A5D211F1E2303EB411194
:1023B00088B203234FF48C71FEF700FD601CC4B299
:1023C000BC42DADB08F101001FFA80F80A20FEF7B0
:1023D00083FAB8F1140F15D13448006808B9012008
:1023E00000E00020314908604FF00008701CC6B2C0
:1023F0008020102103233246CDE90010A0214E2079
:10240000FEF7DCFC30E700001400002041706F6C28
:102410006C6F2053544D33322046340043414E20DC
:10242000544553540000000041544F4D40414C4925
:10243000454E54454B000000323032312F30322FA0
:10244000303200004C6F6F704261636B204D6F64DF
:10245000650000004B4559303A53656E64204B458A
:1024600059313A4D6F646500436F756E743A0000E0
:1024700053656E6420446174613A0000526563657F
:1024800069766520446174613A0000004E6E6F7297
:102490006D616C204D6F6465200000004661696CC1
:1024A000656400004F4B20202020000084824042C1
:1024B0004FF04070E1EE100A70470000000000008D
:1024C000000000000000000000003F40000000008D
:1024D0000000000030004000300040000000090013
:1024E0000BC03D000BC03D00090018C024407FE038
:1024F000224031800000180024C01B000D803240B3
:10250000018003801C4027401C80074000401000D1
:10251000600000000000000000000000000000005B
:102520001F80204040200000402020401F800000ED
:102530000000090006001F800600090000000400DA
:1025400004003F8004000400000000100060000050
:102550000000000000000400040004000400040067
:10256000000000000040000000000000000000200B
:1025700001C006003800400000001F8020402040BD
:1025800020401F800000000010403FC000400000BD
:10259000000018C021402240244018400000108054
:1025A0002040244024401B80000002000D00110048
:1025B0003FC0014000003C80244024402440238050
:1025C00000001F802440244034400380000030007D
:1025D000200027C03800200000001B802440244039
:1025E00024401B8000001C0022C0224022401F808B
:1025F0000000000000000840000000000000000093
:1026000000000460000000000000000004000A0058
:10261000110020804040090009000900090009005C
:10262000000000004040208011000A000400180053
:10263000200023402400180000001F802040274075
:1026400029401F400000004007C039000F0001C0B2
:10265000004020403FC0244024401B8000001F80D9
:102660002040204020403080000020403FC02040DB
:1026700020401F80000020403FC024402E4030C03A
:10268000000020403FC024402E00300000000F001A
:102690001080204022403380020020403FC00400D0
:1026A00004003FC02040204020403FC02040204048
:1026B00000000060202020203FC02000200020409B
:1026C0003FC024400B0030C0204020403FC020408D
:1026D0000040004000C03FC03C0003C03C003FC081
:1026E000000020403FC00C4023003FC020001F805E
:1026F0002040204020401F80000020403FC0244058
:102700002400180000001F802140214020E01FA06D
:10271000000020403FC02440260019C0004018C0DF
:1027200024402440224031800000300020403FC03F
:1027300020403000000020003F80004000403F80EB
:10274000200020003E0001C00700380020003800B3
:1027500007C03C0007C038000000204039C0060018
:1027600039C0204000002000384007C03840200019
:102770000000304021C02640384020C0000000004A
:1027800000007FE0402040200000000070000C00AE
:102790000380004000000000402040207FE0000057
:1027A0000000000020004000200000000000001099
:1027B0000010001000100010001000000000400089
:1027C000000000000000000002800540054003C03A
:1027D000004020003FC0044004400380000000008F
:1027E00003800440044006400000000003800440D1
:1027F00024403FC0004000000380054005400340E6
:102800000000000004401FC02440244020000000BD
:1028100002E0055005500650042020403FC004400F
:10282000040003C000400000044027C00040000036
:10283000000000100010041027E0000000002040FD
:102840003FC00140070004C00440204020403FC07A
:1028500000400040000007C0040007C0040003C09F
:102860000000044007C00440040003C00040000012
:1028700003800440044003800000041007F004506B
:10288000044003800000000003800440045007F06F
:102890000010044007C002400400040000000000D3
:1028A00006400540054004C00000000004001F80F1
:1028B000044000400000040007800040044007C0BE
:1028C00000400400070004C0018006000400060068
:1028D00001C0070001C006000000044006C001005E
:1028E00006C0044000000410071004E00180060048
:1028F00004000000044005C0064004400000000041
:10290000000004007BE04020000000000000000008
:10291000FFF000000000000040207BE00400000009
:102920000000400080004000200020004000000027
:102930000000000000000000000000000000000097
:10294000000000001FCC000C000000000000000090
:102950000800300060000800300060000000022025
:1029600003FC1E20022003FC1E20022000000000A9
:102970000E1811043FFF10840C78000000000F00B7
:1029800010840F3800C007781884007800000078A1
:102990000F8410C411240E9800E40084000808007D
:1029A000680070000000000000000000000000004F
:1029B0000000000007E0181820044002000000009A
:1029C00040022004181807E0000000000000024048
:1029D000024001800FF001800240024000000080B0
:1029E000008000800FF8008000800080000000015F
:1029F000000D000E000000000000000000000000BC
:102A00000080008000800080008000800080000046
:102A1000000C000C0000000000000000000000009E
:102A20000006001800600180060018002000000069
:102A300007F0080810041004080807F00000000060
:102A4000080408041FFC000400040000000000004B
:102A50000E0C10141024104411840E0C0000000001
:102A60000C1810041104110412880C7000000000EE
:102A700000E00320042408241FFC002400000000C0
:102A80001F981084110411041088107000000000B9
:102A900007F0088811041104188800700000000075
:102AA0001C00100010FC13001C00100000000000AF
:102AB0000E3811441084108411440E3800000000B8
:102AC0000700088C10441044088807F0000000003C
:102AD00000000000030C030C0000000000000000D8
:102AE00000000001010600000000000000000000DE
:102AF0000080014002200410080810040000022099
:102B000002200220022002200220022000000000F9
:102B1000100408080410022001400080000000009A
:102B20000E001200100C106C10800F00000003E06B
:102B30000C1813E4142417C4082807D0000000045C
:102B4000003C03C41C40074000E4001C00041004C7
:102B50001FFC1104110411040E880070000003E032
:102B60000C1810041004100410081C1000001004AD
:102B70001FFC100410041004080807F000001004E3
:102B80001FFC1104110417C41004081800001004DD
:102B90001FFC1104110017C010000800000003E022
:102BA0000C181004100410441C780040000010049D
:102BB0001FFC10840080008010841FFC10040000A3
:102BC000100410041FFC1004100400000000000397
:102BD0000001100110011FFE100010000000100481
:102BE0001FFC110403801464181C1004000010045E
:102BF0001FFC1004000400040004000C000010047A
:102C00001FFC1F0000FC1F001FFC1004000010042C
:102C10001FFC0C04030000E010181FFC100007F05C
:102C20000808100410041004080807F0000010043D
:102C30001FFC10841080108010800F00000007F02F
:102C4000081810241024101C080A07F200001004B1
:102C50001FFC1104110011C011300E0C0004000003
:102C60000E1C11041084108410441C38000018003D
:102C7000100010041FFC10041000180000001000C9
:102C80001FF810040004000410041FF810001000C6
:102C90001E0011E0001C007013801C0010001FC0FB
:102CA000103C00E01F0000E0103C1FC000001004BA
:102CB000180C163401C001C01634180C1004100092
:102CC0001C00130400FC13041C0010000000080486
:102CD000101C1064108413041C0410180000000061
:102CE000000000007FFE40024002400200000000A1
:102CF00030000C0003800060001C00030000000096
:102D00004002400240027FFE000000000000000080
:102D100000002000400040004000200000000001B2
:102D2000000100010001000100010001000100009C
:102D300040004000200000000000000000000000F3
:102D40000098012401440144014400FC00041000E7
:102D50001FFC0088010401040088007000000000CE
:102D600000700088010401040104008800000000D4
:102D7000007000880104010411081FFC0004000019
:102D800000F8014401440144014400C8000000006F
:102D9000010401040FFC11041104110018000000CB
:102DA00000D601290129012901C9010600001004EA
:102DB0001FFC008401000100010400FC000400006D
:102DC0000104190419FC00040004000000000000C4
:102DD000000300010101190119FE000000001004A8
:102DE0001FFC0024004001B4010C0104000000009D
:102DF000100410041FFC0004000400000000010483
:102E000001FC0104010001FC0104010000FC0104BB
:102E100001FC008401000100010400FC000400002A
:102E200000F8010401040104010400F8000001019C
:102E300001FF00850104010400880070000000000B
:102E40000070008801040104010501FF0001010474
:102E5000010401FC00840104010001800000000065
:102E600000CC012401240124012401980000000069
:102E70000100010007F80104010400000000010046
:102E800001F8000400040004010801FC0004010032
:102E900001800170000C001001600180010001F050
:102EA000010C003001C00030010C01F001000000F5
:102EB0000104018C00740170018C01040000010107
:102EC00001810171000E0018016001800100000005
:102ED0000184010C013401440184010C0000000054
:102EE00000000000000001003EFC40024002000023
:102EF000000000000000FFFF0000000000000000D4
:102F0000400240023EFC0100000000000000000002
:102F10006000800080004000400020002000000091
:102F200000000000000000000000000000000000A1
:102F30000000000000000000000000000000000091
:102F40000000000000000000000000000000000081
:102F5000000F80380FFE380F80380000000000009E
:102F6000000000000000000000000000010000065A
:102F700000000C00003800003100000600000C00CA
:102F800000380000300000000000000000006180F8
:102F90000067F807F98000618000618000618000AF
:102FA00061800067F807F980006180000000000080
:102FB0000000000001C0E003E0F00630080418083B
:102FC0001FFFFE040E080787F00381E000000000E9
:102FD000000001F000060C00040408060C7001F962
:102FE000C0000E00003BE000EC18070808040C18B5
:102FF0000003E00000000001E00007F003F81804FF
:103000001C0804170807E1D003C0E00023B0003C0F
:10301000080020080000100000000000000100006F
:103020003100003200001C00000000000000000021
:103030000000000000000000000000000000000090
:1030400000000000000000000000000000007F0001
:1030500001FFC00780F00C001810000420000200DF
:1030600000000000002000021000040C001807807F
:10307000F001FFC0007F0000000000000000000021
:103080000000000000000000000042000066000098
:103090006600003C0000180003FFC0001800003C60
:1030A000000066000066000042000000000008000A
:1030B00000080000080000080000080001FFC00030
:1030C00008000008000008000008000008000000D8
:1030D0000000000100003100003200001C00000070
:1030E00000000000000000000000000000000000E0
:1030F00000000000000008000008000008000008B0
:103100000000080000080000080000080000080097
:10311000000800000000000000000000000038006F
:10312000003800003800000000000000000000002F
:103130000000000000000000000000000000000689
:1031400000001C000070000180000E00003800002C
:10315000C0000700001C000030000000000000005C
:1031600000007F8001FFE003807006001804000863
:1031700004000806001803807001FFE0007F800053
:10318000000000000000000001000801000801002C
:103190000803FFF807FFF800000800000800000817
:1031A00000000000000000000001C03802C0580408
:1031B0000098040118040218040418061C1803F8E7
:1031C0001801E0F800000000000000000001C0E06D
:1031D00003C0F004000804080804080806180803DF
:1031E000F41801E7F00001E000000000000000001A
:1031F00000000300000D00001100006100008108C4
:1032000003010807FFF80FFFF8000108000108009C
:1032100000000000000000E007FCD00608080610CF
:1032200008061008061008061838060FF00607C032
:10323000000000000000000000003F8001FFE003EC
:103240008430020818041008041008041008071835
:1032500010030FF00007C000000000000000000095
:1032600003C0000700000600000600F80607F80685
:10327000180006E000070000060000000000000043
:103280000001E1E003F7F006341004180804180800
:10329000040C08040C0806161803F3F001C1E00042
:1032A000000000000000F80003FC300306380402B0
:1032B000080402080402080404100308F001FFC017
:1032C000007F00000000000000000000000000007F
:1032D00000000000000070380070380070380000F6
:1032E00000000000000000000000000000000000DE
:1032F00000000000000000000000301A00301C0038
:1033000000000000000000000000000000000000BD
:10331000000000000008000014000022000041002E
:103320000080800100400200200400100800080016
:103330000000000000002100002100002100002109
:1033400000002100002100002100002100002100D8
:103350000021000000000000000000000800080438
:103360000010020020010040008080004100002287
:103370000000140000080000000000000003C0006E
:1033800004C000040000080038080F380808380896
:1033900010000C300007E00003C000000000000037
:1033A00000003F8000FFE0038070020F100670886D
:1033B00004C088048308047F8802C09003012000B1
:1033C000FE400000080000180001F8003E0801C29D
:1033D0000007020007E20000FE00001FC80001F81D
:1033E00000003800000804000807FFF807FFF80491
:1033F000080804080804080804080806180803F464
:103400001801E7F00001E0000000000000003F802C
:1034100001FFE003807002001804000804000804A3
:1034200000080400100600200780C000000004000F
:103430000807FFF807FFF804000804000804000864
:1034400004001802001003807001FFE0007F80007C
:10345000000004000807FFF807FFF8040808040844
:1034600008040808040808043E08040008060018B8
:1034700001006000000004000807FFF807FFF804DF
:103480000808040800040800040800043E000600C0
:1034900000060000018000000000000000003F80E6
:1034A00001FFE0038070060018040008040208040D
:1034B00002080203F00783F000020000020004008B
:1034C0000807FFF807FFF8040808000800000800D4
:1034D00000080000080004080807FFF807FFF804C8
:1034E00000080000000000000400080400080400B8
:1034F0000807FFF807FFF8040008040008040008A4
:1035000000000000000000000000000600000700AE
:10351000000104000104000104000307FFFE07FF8F
:10352000FC04000004000004000004000807FFF889
:1035300007FFF8040C08001800003E0004C78005CF
:1035400003C80600F804003804001800000804004E
:103550000807FFF807FFF80400080000080000084B
:1035600000000800000800000800001800006000CB
:10357000000004000807FFF807800807FC00007F30
:10358000C00003F80007C000780007800807FFF8B4
:1035900007FFF804000804000807FFF80700080305
:1035A000C00000E000003800001E0000070000011D
:1035B000C00400F007FFF8040000000000007F8056
:1035C00001FFE003807006001804000804000806EC
:1035D000001803003001FFE0007F800000000400BD
:1035E0000807FFF807FFF8040408040400040400B7
:1035F000040400040400060C0003F80001F00000BD
:103600000000000000007F8001FFE00380700600E2
:10361000880400880400C806003C03003E01FFE661
:10362000007F8400000004000807FFF807FFF8048B
:103630000808040800040C00040F00040BC0061066
:10364000F003F03801E00800000800000001E0F895
:1036500003F030063010041808041808040C08049D
:103660000C080206180207F00781E0000000018044
:103670000006000004000004000004000807FFF832
:1036800007FFF80400080400000400000600000121
:10369000800004000007FFE007FFF00400180000AE
:1036A00008000008000008000008000008040010DE
:1036B00007FFE004000004000006000007E0000728
:1036C000FE00041FE00001F80000380001E0043EA5
:1036D0000007C00006000004000004000007E0002E
:1036E00007FFC0041FF80007C007F80007FF8004A9
:1036F0003FF80007C004F8000700000400000000C5
:103700000004000806001807C07805F1C8003E0054
:10371000001F800463E80780F80600180400080012
:10372000000004000006000007800007E008047C99
:1037300008001FF80007F800180804E00807000058
:103740000600000400000000000100080600380424
:1037500000F80403E8040F08047C0805F00807C01B
:1037600008070018040060000000000000000000CE
:103770000000000000000000003FFFFE20000220CB
:1037800000022000022000022000020000000000D1
:103790000000000008000007000000C00000380022
:1037A0000006000001C000003000000E0000010013
:1037B00000000000000000002000022000022000A5
:1037C000022000022000023FFFFE00000000000077
:1037D00000000000000000000000000000000008E1
:1037E0000000100000300000200000300000100039
:1037F00000080000000000000000000001000001BF
:1038000000000100000100000100000100000100B3
:1038100000010000010000010000010000010000A3
:103820000000000000000020000020000010000048
:103830001000000000000000000000000000000078
:1038400000000000000000F00019F8001B18002222
:1038500008002608002408002410003FF8001FF884
:1038600000000800001800000004000007FFF80F27
:10387000FFF0001818001008002008002008003091
:1038800018001FF0000FC00000000000000007C07B
:10389000001FF00018300020080020080020080059
:1038A0003C08001C10000060000000000000000048
:1038B000000007C0001FF000381800200800200892
:1038C00000200804101007FFF80FFFF000001000A0
:1038D00000000000000000000007C0001FF0001200
:1038E00030002218002208002208003208001E10B2
:1038F000000E200000000000000020000020080052
:10390000200801FFF803FFF806200804200804201F
:103910000807200003000000000000000000000E67
:10392000000E6E001FF30031B10020B10020B10085
:103930003191001F13002E1E00200E0030000000E9
:103940000004000807FFF80FFFF80010080020002F
:10395000002000002008003FF8001FF800000800C9
:1039600000000000000000000020080020080020E7
:1039700008063FF8063FF8000008000008000008AD
:103980000000000000000000000000000000030034
:103990000003002001002001002003063FFE063F37
:1039A000FC0000000000000000000000000400080F
:1039B00007FFF80FFFF8000188000300002FC00088
:1039C00038F800203800200800000800000000003F
:1039D0000000000004000804000804000807FFF8C5
:1039E0000FFFF800000800000800000800000000B9
:1039F0000000002008003FF8003FF80010080020F9
:103A000000003FF8003FF8001008002000003FF8D9
:103A1000003FF8000008000000002008003FF80008
:103A20003FF8001008001000002000002008003FB0
:103A3000F8001FF80000080000000000000007C0A8
:103A4000000FF000183000300800200800200800A7
:103A50003008001830000FF00007C0000000000020
:103A600000002001003FFF003FFF0010110020096F
:103A7000002008002008003038001FF0000FC000B0
:103A800000000000000007C0001FF00038180020F0
:103A900008002008002009001011001FFF003FFF50
:103AA000000001000000002008002008002008009D
:103AB0003FF8003FF8000808001008002008002028
:103AC0000000300000300000000000000000000096
:103AD000000C78001E18003308002308002108009D
:103AE00021880021980030F00038600000000000BC
:103AF0000000200000200000200000FFF003FFF87D
:103B0000002008002008002008000030000000000D
:103B10000000000000002000003FF0007FF80000DF
:103B200018000008000008002010003FF8007FF097
:103B30000000100000000000000020000030000025
:103B40003C00003F800023F000007800007000235C
:103B500080003C00003000002000002000003C00FD
:103B6000003FE00023F80000E0002700003E0000D6
:103B70003FE00021F80001E0003E000020000000CE
:103B800000002008002008003838003E6800278028
:103B90000003C8002CF80038380020180020080066
:103BA0000000000000002000003003003C01003F46
:103BB000830023EC000070002380003C0000200004
:103BC0000020000000000000000000000038080095
:103BD00020380020F80023E8002F88003E08003835
:103BE0000800201800007000000000000000000025
:103BF0000000000000000000000008000014001F8A
:103C0000F7FC300006200002000000000000000069
:103C100000000000000000000000000000000000A4
:103C2000FFFFFF0000000000000000000000000097
:103C300000000000000000002000023000061FF716
:103C4000FC0014000008000000000000000000005C
:103C500000000000000000000018000060000040AC
:103C600000004000002000001000000800000400D8
:103C7000000400000C000010000000000000000024
:103C80000000000000000000000000000000000034
:103C90000000000000000000000000000000000024
:103CA0000000000000000000000000000000000014
:103CB0000000000000000000000000000000000004
:103CC00000000000000000000000000000000000F4
:103CD00000000000000000000000000000000000E4
:103CE00000000000000000000000000000000000D4
:103CF00000000000000000000000000000000000C4
:103D000000000000000000000000000000000000B3
:103D1000000007F000C007FFE1E007F001E000004D
:103D200000C00000000000000000000000000000D3
:103D30000000000000000000000000000000000083
:103D40000000000000000000000000000000000073
:103D50000000000000000000000000000000000063
:103D60000000000000000000000000000000000053
:103D70000000000000000000000000000000000043
:103D800000000020000001C00000078000001F00AC
:103D900000001E0000001C20000001C00000078081
:103DA00000001F0000001E0000001C0000000000BA
:103DB0000000000000000000000000000000000003
:103DC00000000000000000000000000000000000F3
:103DD00000000000000000000000000000000000E3
:103DE00000000000000000000000000000000000D3
:103DF00000000000000000000000000000000018AB
:103E00000C0000180C0000180FE0001FFC0003F865
:103E10000C0000180C0000180C0000180C00001812
:103E20000C0000180FE0001FFC0003F80C00001845
:103E30000C0000180C000000000000000000000052
:103E40000000000000000000000000000000000072
:103E50000000000000000000000000000000000062
:103E60000000000000000000000000000000000052
:103E70000000000000000000000000000000000042
:103E8000000000000780007807C000FC0640010E1B
:103E9000002003070020020380200FFFFFFC020127
:103EA000C0200200E0600130704001F03F8000F06F
:103EB0001F000000000000000000000000000000E3
:103EC00000000000000000000000000000000000F2
:103ED00000000000000000000000000000000000E2
:103EE00000000000000000000000000000000000D2
:103EF0000000000000000000000000FE000001FFC4
:103F000000000301800002008060030181C001FF06
:103F1000070000FE18000000E0000003BF00000CD6
:103F2000FFC00071806001C10020030180600000BB
:103F3000FFC000003F000000000000000000000083
:103F40000000000000000000000000000000000071
:103F50000000000000000000000000000000000061
:103F60000000000000000000000000000000000051
:103F70000000000000000000000000001F00000022
:103F80007FC000FCC0C001FF80600303E02002028C
:103F9000782002061E2003FC074001F00380000188
:103FA00003C000011C600001E020000100200001AE
:103FB0000040000001800000000000000000000040
:103FC00000000000000000000000000000000000F1
:103FD00000000000000000000000000000000000E1
:103FE00000000000000000000000000000000000D1
:103FF00000000000000000000000000000000020A1
:1040000000001C6000001C4000001F8000000F002A
:1040100000000000000000000000000000000000A0
:104020000000000000000000000000000000000090
:104030000000000000000000000000000000000080
:104040000000000000000000000000000000000070
:104050000000000000000000000000000000000060
:104060000000000000000000000000000000000050
:104070000000000000000000000000000000000040
:104080000000000000000000000000000000000030
:104090000000000000000007F800003FFF0000786B
:1040A00007C001C000E00300003004000008080061
:1040B00000041000000200000000000000000000EA
:1040C00000000000000000000000000000000000F0
:1040D00000000000000000000000000000000000E0
:1040E00000000000000000000000000000000000D0
:1040F00000000000000000000000000000001000B0
:10410000000208000004040000080300003001C0A1
:1041100000E0007807C0003FFF000007F800000043
:10412000000000000000000000000000000000008F
:10413000000000000000000000000000000000007F
:10414000000000000000000000000000000000006F
:10415000000000000000000000000000000000005F
:10416000000000000000000000000000000000004F
:10417000000000000000000000000000000000003F
:104180000000000C1800000E3800000E3800000679
:104190003000000360000061438000FFFF80006189
:1041A00043000003600000063000000E3800000EDF
:1041B0003800000C180000000000000000000000A3
:1041C00000000000000000000000000000000000EF
:1041D00000000000000000000000000000000000DF
:1041E00000000000000000000000000000000000CF
:1041F00000000000000000000000000000000000BF
:10420000000000008000000080000000800000002E
:1042100080000000800000008000007FFF000000A0
:10422000800000008000000080000000800000008E
:10423000800000008000000000000000000000007E
:10424000000000000000000000000000000000006E
:10425000000000000000000000000000000000005E
:10426000000000000000000000000000000000004E
:10427000000000000000000000000000000000003E
:104280000001000000E3000000E2000000FC00006C
:1042900000780000000000000000000000000000A6
:1042A000000000000000000000000000000000000E
:1042B00000000000000000000000000000000000FE
:1042C00000000000000000000000000000000000EE
:1042D00000000000000000000000000000000000DE
:1042E00000000000000000000000000000000000CE
:1042F00000000000000000000000000000000000BE
:1043000080000000800000008000000080000000AD
:10431000800000008000000080000000800000009D
:10432000800000008000000080000000800000008D
:10433000800000008000000000000000000000007D
:10434000000000000000000000000000000000006D
:10435000000000000000000000000000000000005D
:10436000000000000000000000000000000000004D
:10437000000000000000000000000000000000003D
:104380000000000000C0000001E0000001E00000AB
:1043900000C000000000000000000000000000005D
:1043A000000000000000000000000000000000000D
:1043B00000000000000000000000000000000000FD
:1043C00000000000000000000000000000000000ED
:1043D00000000000000000000000000000000000DD
:1043E00000000000000000000000000000000000CD
:1043F00000000000000000000000000000000000BD
:10440000000C00000038000000E000000380000005
:104410000E00000038000000E00000038000000EE5
:1044200000000038000000E00000038000000E00E3
:104430000000180000000000000000000000000064
:10444000000000000000000000000000000000006C
:10445000000000000000000000000000000000005C
:10446000000000000000000000000000000000004C
:10447000000000000000000000000000000000003C
:104480000000000FF800007FFF0000F007800180AF
:1044900000C00300006002000020020000200200B3
:1044A000002003000060018000C000E00380007F66
:1044B000FF00000FF80000000000000000000000F6
:1044C00000000000000000000000000000000000EC
:1044D00000000000000000000000000000000000DC
:1044E00000000000000000000000000000000000CC
:1044F00000000000000000000000000000000000BC
:1045000000000000000000800020008000200080EB
:1045100000200080006001FFFFE003FFFFE00000DB
:1045200000600000002000000020000000200000CB
:10453000000000000000000000000000000000007B
:10454000000000000000000000000000000000006B
:10455000000000000000000000000000000000005B
:10456000000000000000000000000000000000004B
:10457000000000000000000000000000000000003B
:104580000000007800E00098016001000260020075
:104590000460020008600200106002002060020057
:1045A0004060030080600183006001FE00E0007C49
:1045B0000780000000000000000000000000000074
:1045C00000000000000000000000000000000000EB
:1045D00000000000000000000000000000000000DB
:1045E00000000000000000000000000000000000CB
:1045F00000000000000000000000000000000000BB
:10460000000000F0078001F007C001000040020038
:10461000002002010020020100200201002003030B
:1046200080200186804001FCC0C000787F800000AF
:104630001E0000000000000000000000000000005C
:10464000000000000000000000000000000000006A
:10465000000000000000000000000000000000005A
:10466000000000000000000000000000000000004A
:10467000000000000000000000000000000000003A
:104680000800000038000000480000018800000613
:104690000800000C0810003008100040081001FF4E
:1046A000FFF003FFFFF003FFFFF000000810000021
:1046B00008100000081000000000000000000000CA
:1046C00000000000000000000000000000000000EA
:1046D00000000000000000000000000000000000DA
:1046E00000000000000000000000000000000000CA
:1046F00000000000000000000000000000000000BA
:10470000000000000780001F864003E10020030234
:1047100000200304002003040020030400200304FD
:10472000002003060040030301C00301FF800300D3
:104730007E000000000000000000000000000000FB
:104740000000000000000000000000000000000069
:104750000000000000000000000000000000000059
:104760000000000000000000000000000000000049
:104770000000000000000000000000000000000039
:1047800000000007FC00003FFF000070C3800081B4
:1047900080C001010060030200200202002002022A
:1047A0000020020200200203004001C180C000C0BE
:1047B000FF8000007E0000000000000000000000FC
:1047C00000000000000000000000000000000000E9
:1047D00000000000000000000000000000000000D9
:1047E00000000000000000000000000000000000C9
:1047F00000000000000000000000000000000000B9
:10480000000000F0000003C000000380000003006F
:104810000000030007E003003FE00301C0000306BF
:104820000000031800000360000003800000030084
:104830000000000000000000000000000000000078
:104840000000000000000000000000000000000068
:104850000000000000000000000000000000000058
:104860000000000000000000000000000000000048
:104870000000000000000000000000000000000038
:104880001F0000783F8000FC60C0018EC04003071D
:10489000802002030020020180200201802002010A
:1048A000C0200301E040018670C000FC3F8000781A
:1048B0001F000000000000000000000000000000D9
:1048C00000000000000000000000000000000000E8
:1048D00000000000000000000000000000000000D8
:1048E00000000000000000000000000000000000C8
:1048F0000000000000000000000000000000003F79
:10490000000000FF81C001C0C1C0010060200200A2
:10491000202002002020020020200200206002004F
:1049200040C00100C18000C18F00007FFE00001F59
:10493000F000000000000000000000000000000087
:104940000000000000000000000000000000000067
:104950000000000000000000000000000000000057
:104960000000000000000000000000000000000047
:104970000000000000000000000000000000000037
:104980000000000000000000000000000000000027
:104990000000000300C0000781E0000781E0000381
:1049A00000C0000000000000000000000000000047
:1049B00000000000000000000000000000000000F7
:1049C00000000000000000000000000000000000E7
:1049D00000000000000000000000000000000000D7
:1049E00000000000000000000000000000000000C7
:1049F00000000000000000000000000000000000B7
:104A000000000000000000000000000000000000A6
:104A100000000006006600060078000000000000AC
:104A20000000000000000000000000000000000086
:104A30000000000000000000000000000000000076
:104A40000000000000000000000000000000000066
:104A50000000000000000000000000000000000056
:104A60000000000000000000000000000000000046
:104A70000000000000000000000000000000000036
:104A80000000000080000001C0000003600000067C
:104A90003000000C180000180C0000300600006008
:104AA000030000C00180010000400200002004005B
:104AB00000100000000000000000000000000000E6
:104AC00000000000000000000000000000000000E6
:104AD00000000000000000000000000000000000D6
:104AE00000000000000000000000000000000000C6
:104AF00000000000000000000000000000000004B2
:104B00001000000410000004100000041000000455
:104B10001000000410000004100000041000000445
:104B20001000000410000004100000041000000435
:104B30001000000410000000000000000000000051
:104B40000000000000000000000000000000000065
:104B50000000000000000000000000000000000055
:104B60000000000000000000000000000000000045
:104B70000000000000000000000000000000000035
:104B8000000004000010020000200100004000C0EE
:104B90000180006003000030060000180C00000CCB
:104BA000180000063000000360000001C000000093
:104BB0008000000000000000000000000000000075
:104BC00000000000000000000000000000000000E5
:104BD00000000000000000000000000000000000D5
:104BE00000000000000000000000000000000000C5
:104BF00000000000000000000000000000000000B5
:104C000000000078000001F80000023800000200F7
:104C10000000040000C0040079E0040081E0040109
:104C200000C004030000020200000306000001FCB3
:104C3000000000F80000000000000000000000007C
:104C40000000000000000000000000000000000064
:104C50000000000000000000000000000000000054
:104C60000000000000000000000000000000000044
:104C70000000000000000000000000000000000F25
:104C8000F800003FFE000070078000C000C0010176
:104C9000F8400307FC20021E0420023008200220F6
:104CA0003020023FFC20013F044001800CC000E0A6
:104CB0003180001FC2000000000000000000000062
:104CC00000000000000000000000000000000000E4
:104CD00000000000000000000000000000000000D4
:104CE00000000000000000000000000000000000C4
:104CF0000000000000000000000000000020000094
:104D00000060000003E000003E200003E020003EC1
:104D1000200003E020000380200007FC2000003F6B
:104D2000E0000003FE2000003FE0000001E0000082
:104D30000020000000200000000000000000000033
:104D40000000000000000000000000000000000063
:104D50000000000000000000000000000000000053
:104D60000000000000000000000000000000000043
:104D70000000000000000000000000000000020031
:104D800000200200002003FFFFE003FFFFE002011C
:104D90000020020100200201002002010020020187
:104DA0000020030300200186806001FCC0C000F8E1
:104DB0007F8000001F0000000000000000000000D5
:104DC00000000000000000000000000000000000E3
:104DD00000000000000000000000000000000000D3
:104DE00000000000000000000000000000000000C3
:104DF00000000000000000000000000000000007AC
:104E0000F800003FFF000070078000C000C00100F4
:104E100000400300002002000020020000200200E9
:104E200000200200002001000040018000C003C0FB
:104E300001800030060000000000000000000000BB
:104E40000000000000000000000000000000000062
:104E50000000000000000000000000000000000052
:104E60000000000000000000000000000000000042
:104E70000000000000000000000000000000020030
:104E800000200200002003FFFFE003FFFFE002001C
:104E90000020020000200200002002000020030089
:104EA000006001000040018000C000F00780007F2A
:104EB000FE00000FF80000000000000000000000ED
:104EC00000000000000000000000000000000000E2
:104ED00000000000000000000000000000000000D2
:104EE00000000000000000000000000000000000C2
:104EF00000000000000000000000000000000200B0
:104F000000200200002003FFFFE003FFFFE002019A
:104F10000020020100200201002002010020020105
:104F2000002002038020020FE0200300006003C085
:104F300000E000600300000000000000000000002E
:104F40000000000000000000000000000000000061
:104F50000000000000000000000000000000000051
:104F60000000000000000000000000000000000041
:104F7000000000000000000000000000000002002F
:104F800000200200002003FFFFE003FFFFE002011A
:104F900000200201002002010000020100000201C5
:104FA00000000201000002038000030FE000030084
:104FB000000003C0000000600000000000000000CE
:104FC00000000000000000000000000000000000E1
:104FD00000000000000000000000000000000000D1
:104FE00000000000000000000000000000000000C1
:104FF00000000000000000000000000000000007AA
:10500000F800003FFE000070078001C001C00100F1
:1050100000400300002002000020020000200200E7
:105020000020010020200100204003C03F8000300C
:105030003F80000020000000200000000000000071
:105040000000000000000000000000000000000060
:105050000000000000000000000000000000000050
:105060000000000000000000000000000000000040
:10507000000000000000000000000200002002000C
:10508000002003FFFFE003FFFFE00200802002009A
:1050900080200000800000008000000080000200EE
:1050A00080200200802003FFFFE003FFFFE00200FA
:1050B00000200200002000000000000000000000AE
:1050C00000000000000000000000000000000000E0
:1050D00000000000000000000000000000000000D0
:1050E00000000000000000000000000000000000C0
:1050F00000000000000000000000000000000000B0
:105100000000000000000200002002000020020059
:1051100000200200002003FFFFE003FFFFE0020089
:1051200000200200002002000020020000200000F9
:10513000000000000000000000000000000000006F
:10514000000000000000000000000000000000005F
:10515000000000000000000000000000000000004F
:10516000000000000000000000000000000000003F
:10517000000000000000000000000000000000002F
:10518000000E0000000F0000000F000000010200F0
:10519000000102000001020000030200000603FFFC
:1051A000FFFC03FFFFF80200000002000000020005
:1051B00000000200000000000000000000000000ED
:1051C00000000000000000000000000000000000DF
:1051D00000000000000000000000000000000000CF
:1051E00000000000000000000000000000000000BF
:1051F00000000000000000000000000000000200AD
:1052000000200200002003FFFFE003FFFFE0020098
:10521000C0200201002000078000000FE0000030E5
:10522000F80002603E2003800F20030003E002002C
:1052300000E002000020000000200000000000004C
:10524000000000000000000000000000000000005E
:10525000000000000000000000000000000000004E
:10526000000000000000000000000000000000003E
:10527000000000000000000000000000000002002C
:1052800000200200002003FFFFE003FFFFE0020018
:10529000002002000020000000200000002000008C
:1052A000002000000020000000200000006000003E
:1052B00000E000000300000000000000000000000B
:1052C00000000000000000000000000000000000DE
:1052D00000000000000000000000000000000000CE
:1052E00000000000000000000000000000000000BE
:1052F000000000000000000000000200002002008A
:10530000002003FFFFE003E0002003FF0020001F58
:10531000F0000001FF8000000FE000001E0000030D
:10532000E000003E002003E0002003FFFFE003FF59
:10533000FFE002000020020000200000000000004A
:10534000000000000000000000000000000000005D
:10535000000000000000000000000000000000004D
:10536000000000000000000000000000000000003D
:105370000000000000000000000002000020020009
:10538000002003FFFFE00380002003F0002000FC6A
:105390000000001F00000007C0000001F000000036
:1053A0007C0002001F80020007E003FFFFE0020014
:1053B00000000200000000000000000000000000EB
:1053C00000000000000000000000000000000000DD
:1053D00000000000000000000000000000000000CD
:1053E00000000000000000000000000000000000BD
:1053F0000000000000000000000000000000000F9E
:10540000F800003FFE0000F00780018000C00100AE
:1054100000400200002002000020020000200200E4
:10542000002001000040018000C000F00380003F28
:10543000FE00000FF8000000000000000000000067
:10544000000000000000000000000000000000005C
:10545000000000000000000000000000000000004C
:10546000000000000000000000000000000000003C
:10547000000000000000000000000000000002002A
:1054800000200200002003FFFFE003FFFFE0020016
:1054900080200200802002008000020080000200C4
:1054A000800002008000030180000183000000FEF4
:1054B0000000007C00000000000000000000000070
:1054C00000000000000000000000000000000000DC
:1054D00000000000000000000000000000000000CC
:1054E00000000000000000000000000000000000BC
:1054F0000000000000000000000000000000000F9D
:10550000F800007FFF0000F00380018001C001006F
:1055100006400200042002000420020006200200CF
:1055200003E0010000F80180005C00E0038C003F14
:10553000FF0C000FFC18000000000000000000003D
:10554000000000000000000000000000000000005B
:10555000000000000000000000000000000000004B
:10556000000000000000000000000000000000003B
:105570000000000000000000000000000000020029
:1055800000200200002003FFFFE003FFFFE0020114
:10559000002002010020020180000201E00002015F
:1055A000FC0003033F80018607E001FC00E000F8F7
:1055B00000200000002000000000000000000000AB
:1055C00000000000000000000000000000000000DB
:1055D00000000000000000000000000000000000CB
:1055E00000000000000000000000000000000000BB
:1055F00000000000000000000000000000000000AB
:1056000000000078060000FE01E0018600C00303F0
:1056100000400203002002018020020180200201DC
:10562000C0200200C0200100E060018070C003E0E3
:105630003F8000001F00000000000000000000008C
:10564000000000000000000000000000000000005A
:10565000000000000000000000000000000000004A
:10566000000000000000000000000000000000003A
:1056700000000000000000000000000000000060CA
:105680000000038000000300000002000000020090
:1056900000200200002003FFFFE003FFFFE0020004
:1056A0000020020000200200000002000000038031
:1056B000000000E00000000000000000000000000A
:1056C00000000000000000000000000000000000DA
:1056D00000000000000000000000000000000000CA
:1056E00000000000000000000000000000000000BA
:1056F00000000000000000000000020000000200A6
:10570000000003FFFF0003FFFFC002000040020093
:1057100000600000002000000020000000200000C9
:105720000020020000400200008003FFFF00020092
:105730000000020000000000000000000000000067
:105740000000000000000000000000000000000059
:105750000000000000000000000000000000000049
:105760000000000000000000000000000000000039
:105770000000000000000000000000000000020027
:1057800000000200000003C0000003FC0000023F14
:10579000C0000003F80000007F80000007E0000068
:1057A0000780000078000203C000023C000003C034
:1057B00000000200000002000000000000000000E5
:1057C00000000000000000000000000000000000D9
:1057D00000000000000000000000000000000000C9
:1057E00000000000000000000000000000000000B9
:1057F000000000000000000000000200000003C0E4
:10580000000003FF8000023FFE0002007FE0000076
:105810000F000200F00003EF000003FF8000020F02
:10582000FE0000003FE000001F000207E00003F858
:105830000000030000000200000000000000000063
:105840000000000000000000000000000000000058
:105850000000000000000000000000000000000048
:105860000000000000000000000000000000000038
:105870000000000000000000000000000000020026
:10588000002002000020038000E003F0032002FC5F
:105890000C20021F30000007C0000007F0000218B3
:1058A0007C0002601F20038003E0020000E0020091
:1058B00000200000002000000000000000000000A8
:1058C00000000000000000000000000000000000D8
:1058D00000000000000000000000000000000000C8
:1058E00000000000000000000000000000000000B8
:1058F00000000000000000000000000000000200A6
:1059000000000300000003C0000003F80000023E96
:105910000020020FC0200001FFE000007FE0000334
:105920008020021C002002700000038000000200A2
:105930000000020000000000000000000000000065
:105940000000000000000000000000000000000057
:105950000000000000000000000000000000000047
:105960000000000000000000000000000000000037
:105970000000000000000000000000000000000027
:105980000020006000E0038003E003000FA002009D
:105990003E200200F8200203E020020F8020023E99
:1059A00000200278002003E00060038000E0020095
:1059B00003000000000000000000000000000000E4
:1059C00000000000000000000000000000000000D7
:1059D00000000000000000000000000000000000C7
:1059E00000000000000000000000000000000000B7
:1059F00000000000000000000000000000000000A7
:105A00000000000000000000000000000000000096
:105A100000001FFFFFFC1000000410000004100035
:105A20000004100000041000000410000004100026
:105A30000004000000000000000000000000000062
:105A40000000000000000000000000000000000056
:105A50000000000000000000000000000000000046
:105A60000000000000000000000000000000000036
:105A70000000000000000000000000000000000026
:105A80000000000000000700000003C000000078D4
:105A90000000001E00000003C0000000F000000035
:105AA0001E0000000780000000F00000003C000025
:105AB00000060000000000000000000000000000E0
:105AC00000000000000000000000000000000000D6
:105AD00000000000000000000000000000000000C6
