:020000040800F2
:10000000380900204D0200085B0200085D0200086C
:100010005F0200086102000863020008000000009F
:100020000000000000000000000000006502000861
:100030006702000800000000690200086B02000867
:100040004D0500086D0200086D0200086D020008F1
:100050006D0200086D0200089D0300086D02000893
:1000600035040008690400086D0200086D020008EC
:100070006D0200086D0200086D0200086D020008A4
:100080006D0200086D0200086D0200086D02000894
:100090006D0200086D0200086D0200086D02000884
:1000A0006D0200086D0200086D0200086D02000874
:1000B0006D0200089D0400086D0200086D02000832
:1000C0006D0200086D0200086D0200086D02000854
:1000D0006D020008CD0400086D0200086D020008E2
:1000E000E90300086D0200086D0200086D020008B7
:1000F0006D0200086D0200086D0200086D02000824
:100100006D0200086D0200086D0200086D02000813
:100110006D0200086D0200086D0200086D02000803
:100120006D0200086D0200086D0200086D020008F3
:100130006D0200086D0200086D0200086D020008E3
:100140006D0200086D0200086D0200086D020008D3
:100150006D0200086D0200086D0200086D020008C3
:100160006D0200086D0200086D0200086D020008B3
:100170006D0200086D0200086D020008000000001A
:100180006D0200086D0200086D0200086D02000893
:100190006D0200086D0200086D0200086D02000883
:1001A0006D0200086D0200086D02000800F002F800
:1001B00000F03CF80AA090E8000C82448344AAF1C5
:1001C0000107DA4501D100F031F8AFF2090EBAE8C3
:1001D0000F0013F0010F18BFFB1A43F0010318477B
:1001E000840A0000A40A0000103A24BF78C878C12D
:1001F000FAD8520724BF30C830C144BF04680C602D
:10020000704700000023002400250026103A28BF74
:1002100078C1FBD8520728BF30C148BF0B60704778
:100220001FB500F019FD1FBD10B510BD00F070F82E
:100230001146FFF7F5FF00F0E1FC00F0A2F803B46F
:10024000FFF7F2FF03BC00F0A7F900000B480168BC
:1002500041F4700101600A480047FEE7FEE7FEE74F
:10026000FEE7FEE7FEE7FEE7FEE7FEE7FEE700004B
:1002700004480549034A054B7047000088ED00E03B
:10028000AD010008380100203809002038010020A5
:10029000704700000FB4044910B503AA029800F09B
:1002A00009F810BC5DF814FB04000020704770478B
:1002B00070477047074B70B50D467B4400F011F84E
:1002C0000446284600F020F810B14FF0FF3070BD12
:1002D000204670BD2309000001694A1C02610878AC
:1002E000704700B58FB0CDE9013100210591054976
:1002F0007944CDE903101146684600F02EF80FB09E
:1003000000BD0000E5FFFFFF007B00F080007047AC
:10031000754600F03FF8AE4605006946534620F0AA
:100320000700854618B020B5FFF7A2FFBDE82040C2
:100330004FF000064FF000074FF000084FF0000BA1
:1003400021F00701AC46ACE8C009ACE8C009ACE854
:10035000C009ACE8C0098D4670472DE9F04106465A
:100360000024D6E90170F5688046304603E0414636
:10037000B847641C3046A8470028F8D12046BDE89D
:10038000F08110B50446AFF300802046BDE8104070
:10039000FFF755BF00487047D400002010B50A2071
:1003A00000F01AF90C480068012811D10B480068C8
:1003B00008B9012000E000200849091D086008482C
:1003C000D0F8800208B9012000E00020034908604D
:1003D00001200449086010BD000240428082404272
:1003E00000804042143C014010B50A2000F0F4F8AF
:1003F0000C48006888B90C48006808B9012000E082
:100400000020094908600948D0F8800208B9012095
:1004100000E000200449091F08604FF4005004491F
:10042000086010BD34024142848240420080404254
:10043000143C014010B50A2000F0CEF807480068CF
:1004400038B90748006808B9012000E000200449D5
:10045000086004200349086010BD00000882434280
:1004600080824042143C014010B50A2000F0B4F8EC
:100470000748006838B90748006808B9012000E05B
:1004800000200449086008200349086010BD0000EE
:100490000C82434284824042143C01400948006877
:1004A00000F0010038B10848006808B9012000E0F8
:1004B0000020054908600348006820F00100014958
:1004C0000860704710040040808240421C4909685F
:1004D00001F0200109B31A494968C8B219490988CD
:1004E00001F40041C9B91749098801F4804161B19B
:1004F0000A2803D00021134A118020E011490988FD
:1005000041F400410F4A118019E00D2806D10D4930
:10051000098841F480410B4A118010E0094909889B
:10052000C1F30D01084A505406490988491C054A7F
:10053000118011460988C72901DD0021118070470B
:1005400000100140080000200C00002010B57F20A2
:1005500000F01EFB0848006820F001000649086012
:100560000648006808B9012000E00020034908603F
:1005700003A0FFF78FFE10BD082C00408082404290
:10058000575744475F49525148616E646C65722009
:10059000646F6E652E0D0A0000BF70474FF0E021BA
:1005A000096921F004014FF0E022116100EB8002A3
:1005B0005100CA1701EB5272C2F3C702044B1A7002
:1005C0004FF47A714143C1F3CF01024A1180704761
:1005D000000000200200002070B504464FF40770B0
:1005E00094FBF0F0C6B24FF4077094FBF0F100FBFF
:1005F000114085B205E04FF4077000F0D3FA701E89
:10060000C6B2002EF7D115B1284600F0CBFA70BD66
:100610002DE9F0470C46DDE90867002100258C46EE
:1006200000BF60E04FF0010808FA01F504EA050C8C
:10063000AC4557D1D0F800804FEA410A4FF003098A
:1006400009FA0AF928EA0908C0F80080D0F8008001
:100650004FEA410902FA09F948EA0908C0F800809E
:10066000012A01D0022A27D1D0F808804FEA410A96
:100670004FF0030909FA0AF928EA0908C0F80880C6
:10068000D0F808804FEA410906FA09F948EA090852
:10069000C0F80880D0F804904FF0010808FA01F87B
:1006A00029EA0809C0F80490D0F8048003FA01F997
:1006B00048EA0908C0F80480D0F80C804FEA410AE3
:1006C0004FF0030909FA0AF928EA0908C0F80C8072
:1006D000D0F80C804FEA410907FA09F948EA0908FD
:1006E000C0F80C80491C10299CD3BDE8F08730B5B8
:1006F000CC1000F1200353F824304C07E50E0F24F2
:10070000AC40A343CD1000F1200444F82530CC10B8
:1007100000F1200353F824304C07E40E02FA04F4ED
:100720002343CD1000F1200444F8253030BD0000F3
:100730001CB51748006840F00100154908600846DC
:10074000006840F0040008600846006840F080003F
:1007500008600220FF210B460022CDE90010012194
:100760000C48FFF755FF0120FF210B460022CDE981
:10077000001041030848FFF74BFF0120FF210B4603
:100780000022CDE900100C210448FFF741FF1CBDF9
:10079000303802400000024000080240001C0240C5
:1007A0001CB50B48006840F00200094908600120B0
:1007B000032100230246CDE900100648FFF728FF79
:1007C0000120054908600549C1F880021CBD0000F0
:1007D000303802400004024084824042008040429F
:1007E00018B90121044A116005E0012803D1012153
:1007F000014A121F116070478482404218B90021DB
:10080000044A116005E0012803D10021014A121FAA
:1008100011607047848240422DE9F04107468846C6
:1008200014461D46284600F033F8C5F1040007FAC7
:1008300000F60F20284100EA0800064306F00F06E4
:10084000E21704EBD2625211920002F1E022D2F8D8
:1008500000212146E31704EBD3635B11A4EB431C97
:10086000012303FA0CF31A432046E31704EBD36386
:100870005B119B0003F1E023C3F800210348005DF6
:1008800040EA061001490855BDE8F08100E400E0A7
:100890000146072323EA01021202054B18684FF6AE
:1008A000FF031840034B18431043014B1860704777
:1008B0000CED00E00000FA054A0A52020243014B27
:1008C0001A60704708ED00E02DE9F04104460D463E
:1008D00016461F461448006840F00100124908609F
:1008E00000201149083108600F4800680F4908408E
:1008F0000D4908600E48091D0860081F006820F4B3
:100900008020091F0860002007490C3108603B4621
:1009100032462946204600F00DF800210846FFF730
:10092000CBFFBDE8F081000000380240FFFFF6FE7B
:1009300010300024F0B504460D46002100203D4E45
:10094000366846F480363B4F3E6001E04E1CB1B243
:10095000384E366806F400361EB941F6FF76B142CD
:10096000F4DB41F6FF76B14201D1012060E0314E67
:100970004036366846F080562E4F40373E602E4E49
:10098000366846F440462C4F3E602A4E083636689C
:1009900046F41446274F08373E60264E366826F048
:1009A0008076244F3E6045EA84160127C7EB520744
:1009B00046EA074646EA036646F480061D4F3F1D99
:1009C0003E603E1F366846F080763F1F3E6000BFA7
:1009D000184E366806F00076002EF9D0174E3668AD
:1009E00046F48076154F3E603E46366846F4007603
:1009F0003E603E46366846F480663E603E46366857
:100A000046F005063E600B4E0836366826F00306B3
:100A1000084F08373E603E46366846F002063E60A4
:100A200000BF044E0836366806F00C06082EF8D1D2
:100A3000F0BD00000038024000700040003C024061
:100A400070B505460C461048006840F002000E499B
:100A500008600E480560001F04600C4820380068DC
:100A600040F0010009492039086008482C38006826
:100A700040F0010005492C39086002231D220321A2
:100A80000120FFF7C9FE70BD403802402C04004031
:100A9000F0B52DED028B83B005460E46384905FBB7
:100AA00001F000EE100AF8EE400A300100EE100AE4
:100AB000B8EE400A80EE801AB0EE418ABCEEC80A59
:100AC00010EE100A84B200EE104AB8EE400A38EE7A
:100AD000400AF3EE000A20EE200ABCEEC00A10EE37
:100AE000107A4FF6FF7000EA0414E01984B225482A
:100AF000006840F001002349086022481430006873
:100B000040F010001F491431086001200221002329
:100B10000A46CDE900104FF4C0611B48FFF778FD8D
:100B2000072209211848FFF7E2FD07220A2116488B
:100B3000FFF7DDFD15488460C06820F400401349CC
:100B4000C8600846C06840F00800C8600846C06831
:100B500040F00400C8600846C06840F02000C8604B
:100B60000223252203210846FFF756FE0748C068E6
:100B700040F400500549C86003B0BDEC028BF0BDE5
:100B800040420F0030380240000002400010014097
:100B900000F07F0141F08001014A116070470000C0
:100BA000002C004001460D4A12884A434FF0E023D2
:100BB0005A6100229A6101221A6100BF4FF0E022BF
:100BC000106900F001021AB100F48032002AF5D059
:100BD00000224FF0E0231A619A6170470200002062
:100BE00000BF054A126802F04002002AF9D0C2B2E2
:100BF000014B5A6070470000001001400823022298
:100C000019214FF4B470FFF75FFEB420FFF7C6FC64
:100C10004FF4E1315A20FFF73BFFFFF7C1FDFFF72B
:100C200087FD42F2273141F28730FFF709FF0020AC
:100C3000FFF7E4FD0120FFF7D3FD0AE00548006857
:100C400008B9012000E0002002490860C820FFF731
:100C5000C3FCF3E7848240424FF04070E1EE100A9B
:100C600070470000840C0008000000200C00000009
:100C7000E8010008900C00080C0000202C0900007E
:100C80000402000800000000000000000000000056
:04000005080001AD41
:00000001FF
